:100000000C9401030C947B210C9448030C9448033A
:100010000C9448030C9448030C9448030C94480334
:100020000C9448030C9448030C940B290C94DD2980
:100030000C943B240C9448030C9448030C94480300
:100040000C9448030C9448030C9448030C94480304
:100050000C9448030C94B0240C9448030C9448036B
:100060000C9448030C9448030C9448030C944803E4
:100070000C9448030C9448030C9448030C944803D4
:100080000C9448030C9448030C9448030C944803C4
:100090000C9448030C9448030C9448030C944803B4
:1000A0000C9448030C9448030C944803E605E605B9
:1000B0001806180665068306A407A4078E062307FC
:1000C000340734079407A407A4079D07440844088D
:1000D000560856084D08560856085608440844085D
:1000E00052085608560852084A2A712A692B712A62
:1000F000692BBD2AE02A692B372B462B35421E007F
:100100001F0020002100220001512B0014001A00C2
:100110000800150017002F00290004001600070032
:1001200009000A004B43E6001D001B0006001900F1
:1001300005004E00E30057005600556431612A0067
:100140004C002D42270026002500240023000151E9
:100150002E00130012000C0018001C0030003400A8
:1001600033000F000E000D000B004D43E50038007A
:1001700037003600100011004A004F0052005100B5
:100180005000E1002C00280001003A003B003C0038
:100190003D003E00010001001E021F022F0230023E
:1001A000310214500100200221022F0030003500DE
:1001B000010001002202230226022702350201006B
:1001C0000100010001000100010001000100000028
:1001D00043004200410040003F0001000000560083
:1001E000610060005F0054000100000057005E00E5
:1001F0005D005C0055000100000058005B005A00E3
:100200005900000001000000580063006200620015
:1002100001000100010001000100010001000100D6
:10022000010000000000ED000000F90000000100E6
:100230000000EF00EE00F000FA00000001000000F6
:1002400000000000000000000000010000000000AD
:1002500000000000F100F2000100010001000100B7
:10026000010001000100010000000000000000008A
:10027000000000000100000000004F00520051008B
:10028000500000000000000000000000000000001E
:10029000010000000000000000000000010001005B
:1002A00000003A003B003C003D003E00C65C000000
:1002B000005CCE5CC35CC45CC75C01000000000055
:1002C000000000000000000001000000000000002D
:1002D000000000000000000000000000000000001E
:1002E0000000000000000000430042004100400008
:1002F0003F00C95C000000000000CA5CCB5CC85C29
:1003000000000000000000000000000000000100EC
:1003100000000000000000000000000000000000DD
:1003200000000000000000000000000035001E007A
:100330001F0020002100220000002B0014001A00E2
:10034000080015001700010029000400160007002E
:1003500009000A001000E1001D001B000600190042
:1003600005000C00000057005600E200E0002C00E1
:1003700028002D002700260025002400230001511D
:100380002E00130012000C0018001C003000340076
:1003900033000F000E000D000B000000E5003800D8
:1003A000370036001000110000004F0052005100CD
:1003B000500010502A004C00000101010101010110
:1003C000010102020202020202020203030303030A
:1003D00003030304040404040404050505050506D9
:1003E0000606060607070707070808080809090997
:1003F000090A0A0A0B0B0B0C0C0C0D0D0D0E0E0E40
:100400000F0F0F10101111111212131314141515D0
:1004100016161717181819191A1A1B1B1C1D1D1E42
:100420001E1F202021222223242425262627282996
:10043000292A2B2C2D2D2E2F3031323233343536C4
:100440003738393A3B3C3D3E3F40414243444546C4
:100450004748494A4C4D4E4F5051535455565859A0
:100460005A5B5D5E5F616264656668696B6C6D6F47
:100470007072737577787A7B7D7E808283858788BA
:100480008A8C8E8F91939596989A9C9EA0A2A3A5F4
:10049000A7A9ABADAFB1B3B5B7BABCBEC0C2C4C6F5
:1004A000C9CBCDCFD1D4D6D8DBDDDFE2E4E7E9EBB1
:1004B000EEF0F3F5F8FAFDFF26035400680065003E
:1004C00020005200650064006F00780020004B009F
:1004D0006500790062006F00610072006400000036
:1004E0001403460061006C00620061007400650046
:1004F0006300680000000403090409023B000201D4
:1005000000A0FA0904000001030101000921110102
:1005100000012240000705810308000A09040100C8
:100520000103000000092111010001227B000705E1
:10053000820320000A1201000200000008444D441A
:100540005200010102000105010902A10185020911
:1005500001A1000509190129081500250195087553
:100560000181020501093009311581257F95027548
:1005700008810609381581257F95017508810605D2
:100580000C0A38021581257F950175088106C0C0C7
:1005900005010980A101850319012AB7001501266B
:1005A000B700950175108100C0050C0901A10185F6
:1005B0000419012AA002150126A0029501751081D7
:1005C00000C005010906A101050719E029E715008A
:1005D00025019508750181029501750881010507BE
:1005E000190029FF150026FF0095067508810005F2
:1005F0000819012905950575019102950175039169
:1006000001C011241FBECFEFDAE0DEBFCDBF04B6BC
:1006100003FE27C08091040390910503A091060377
:10062000B09107038730904BA740B04BD1F41092A4
:10063000040310920503109206031092070314BEE0
:1006400084B7877F84BF0FB6F894A8958091600027
:10065000886180936000109260000FBEE0E0F8E3D4
:10066000099511E0A0E0B1E0EAE7F8E502C00590E5
:100670000D92AA3BB107D9F723E0AAEBB1E001C084
:100680001D92A430B207E1F70E94F4160C943B2CA3
:100690000C94000081E0089581E008950C944C03CF
:1006A00008950C9450031F93CF93DF9300D000D094
:1006B0001F92CDB7DEB749835A836B833091BC015B
:1006C00089819A81311114C0662359F0222349F09F
:1006D0000E94E809182F682F89819A810E94910948
:1006E00003C00E94BC09182F69817A81812F04C040
:1006F0000E94E80969817A810F900F900F900F9006
:100700000F90DF91CF911F910C946910FC01262F5F
:10071000408151816281738184810C94530381E013
:100720000895CF93DF93EC0160E00E948603BE0141
:10073000DF91CF910C9451030E947F120E94140408
:100740000C94B9120C94B51208950E9432080E94BC
:10075000A4032FEF84E39CE0215080409040E1F718
:1007600000C000000C94D6240F931F93CF93DF9307
:100770008C0161E00E948603EC01B8010E944E03E7
:10078000882309F444C0B801CE010E94251F8823A4
:10079000F1F1B801CE010E94771F8823C1F1B801A1
:1007A000CE010E94A920882391F1B801CE010E94B8
:1007B000F81D882361F1F8018281882309F1CB3586
:1007C0008DE5D807C1F050F4C115FCE5DF0781F0D5
:1007D000CF3DDC45A9F40E947D0F19C0CC35EDE575
:1007E000DE0761F0CD35DD4559F40E94070E08C0E3
:1007F0000E94A5030CC00E94100E02C00E94130E9E
:10080000C801DF91CF911F910F910C944A0380E0B2
:10081000DF91CF911F910F91089508950C940D04CD
:1008200081E008950C9410040895CF93C82F0E947E
:100830000E048C2F0E941204CF910895CF93DF9362
:10084000CDB7DEB72B970FB6F894DEBF0FBECDBF86
:100850004F83588769877A878B8761110E94360E8C
:100860009E012F5F3F4F86E0F90111928A95E9F7CB
:1008700085E0FE013796D90101900D928A95E1F746
:1008800089819A814C815D81452B31F09F3F31F404
:1008900091E08F3F19F403C091E001C090E090FF18
:1008A00009C049815A816B817C818D819E810E9422
:1008B000360D05C0C9010E948F038111F2CF2B961E
:1008C0000FB6F894DEBF0FBECDBFDF91CF91089574
:1008D000FC01808191810E942A0A0895CF93882388
:1008E00009F4A9C0C82F8238C1F40E94FF2281FDFB
:1008F000A2C069E380910001909101010E949923B7
:100900000E94680E2FEF81EE94E0215080409040CD
:10091000E1F700C0000069E319C0833801F50E94C7
:10092000FF2280FD88C063E5809100019091010164
:100930000E9499230E94680E2FEF81EE94E02150CF
:1009400080409040E1F700C0000063E58091000125
:10095000909101010E949B23CF910C94680E8438E2
:10096000C1F40E94FF2282FD66C067E4809100010D
:10097000909101010E9499230E94680E2FEF81EE51
:1009800094E0215080409040E1F700C0000067E40F
:10099000DDCF8CEF8C0F813AF8F48C2F0E942D184C
:1009A000811149C06C2F80910001909101010E943A
:1009B0006323882349F06C2F8091000190910101FD
:1009C0000E949B230E94680E6C2F809100019091E1
:1009D00001010E949923C0CF80E28C0F883048F437
:1009E000C77081E001C0880FCA95EAF70E94190E0E
:1009F000B3CFEBE5EC0FE33040F4F0E0EF58FE4FFF
:100A0000808190E0CF910C942B23E8E5EC0FE73147
:100A100050F4F0E0EE0FFF1FED5BFE4F80819181FF
:100A2000CF910C944123CD3E30F08C2F0E94F818CA
:100A3000CF910C94CA19CF910895882309F464C00A
:100A4000823879F40E94FF2281FF5EC069E38091C1
:100A50000001909101010E9499230E94680E69E3B0
:100A600010C08338B1F40E94FF2280FF4DC063E5BF
:100A700080910001909101010E9499230E94680ECB
:100A800063E580910001909101010E949B230C94E9
:100A9000680E843879F40E94FF2282FF35C067E433
:100AA00080910001909101010E9499230E94680E9B
:100AB00067E4E7CF9CEF980F913A10F4682FE1CFED
:100AC00090E2980F983050F4877091E001C0990F30
:100AD0008A95EAF7892F0E941F0ED9CF9BE5980FC0
:100AE000933020F480E090E00C942B2398E5980F4D
:100AF000973120F480E090E00C9441238D3E20F06B
:100B00000E9453190C94CA1908951F93CF93DF9331
:100B1000182FEB010E946E04209741F08FE99FE0AF
:100B20000197F1F700C000002197F6CF812FDF91E8
:100B3000CF911F910C941D05893319F060E070E08E
:100B400002C060E570E00C948505882321F00E94C6
:100B5000190E0C94680E0895882321F00E941F0E30
:100B60000C94680E0895CF92DF92EF92FF920F934C
:100B70001F93CF93DF937C01062FC72FFC01D281F7
:100B8000158112951F700E94EE0D882399F0DD23C8
:100B900089F08C2F807F803421F080E2800F8830B4
:100BA00048F082E00E94B80E0E94EE0D91E0D82E2F
:100BB000D92601C0D12CCC2EC2948FE0C8228C2D16
:100BC00090E0FC01EA5AFF4F0C94D72B8C2F807FCA
:100BD000CF70882311F0C295C07FDD2399F0CC231C
:100BE00009F48DC180E2800F883010F0011104C03B
:100BF0008C2F0E94190E03C08C2F0E94290E0E9478
:100C0000680E7DC1802F0E941D05CC2309F49CC174
:100C100080E2800F883010F0011104C08C2F0E94F8
:100C20001F0E03C08C2F0E942F0E0E94680E8CC1D5
:100C30008C2F807FCF70803211F0C295C07F00234F
:100C400019F00130C9F022C0DD2371F0112341F009
:100C5000113031F40E94490E8C2B0E94510E74C148
:100C60000E94490E8C2B1DC0112319F0113009F47C
:100C70006BC10E945E0E25C0DD2321F0163008F006
:100C800063C10EC0153008F05FC11BC0DD2361F0E9
:100C9000112331F0F701858180FF31C18F70858389
:100CA0008C2F0E94A50550C1112359F0093309F07A
:100CB00037C1FFEF27EE83E0F15020408040E1F79D
:100CC0002DC18C2F0E94AC053FC18C2F8695869537
:100CD000837019F0813061F037C1DD2321F0802F5E
:100CE0009C2F937002C080E090E00E942B2334C1BF
:100CF000DD2321F0802F9C2F937002C080E090E0D4
:100D00000E94412329C1802FDD2319F00E94F81889
:100D100002C00E9453190E94CA191EC18C2F8370F1
:100D200009F045C0D11114C1402F42954695477036
:100D3000440F440F602F6F70862F90E0A0E0B0E06A
:100D4000042E04C0880F991FAA1FBB1F0A94D2F754
:100D500004FF10C00FE010E020E030E004C0000FFE
:100D6000111F221F331F4A95D2F700951095209529
:100D7000309503C000E010E09801C695C695C37099
:100D8000BC01CD01602B712B822B932BC23049F01B
:100D900058F4C13019F00E94A708DAC00E949508E3
:100DA000D7C00E94B908D4C00E949308D1C0DD23E7
:100DB00019F08C2F817001C08695882309F4C8C072
:100DC000402F429546954770440F440F602F6F7037
:100DD000862F90E0A0E0B0E0042E04C0880F991F99
:100DE000AA1FBB1F0A94D2F704FF10C00FE010E047
:100DF00020E030E004C0000F111F221F331F4A956E
:100E0000D2F7009510952095309503C000E010E0D2
:100E10009801C695C695C370BC01CD01602B712B9E
:100E2000822B932BC23049F058F4C13019F00E9444
:100E30006C098EC00E945A098BC00E947E0988C02E
:100E40000E94CD0885C0CF70DD2339F08C2F0E9421
:100E5000F308802F0E94A5057BC0802F0E94AC055F
:100E60008C2F0E94140974C0023F01F128F4003F46
:100E700041F0013FA1F03FC0033FF9F0043F39F1D9
:100E80003AC0DD2341F0153008F05EC08C2F8F7121
:100E90000E94390959C0163008F056C0F7CFDD233B
:100EA00039F08C2F8F710E94F3084EC0DD23C9F3F7
:100EB0008C2F8F710E94140947C0DD2329F08C2FDD
:100EC0008F710E94DE0840C00E94D9083DC0DD231A
:100ED00049F0CF718C2F0E94F30863E08C2F0E94A1
:100EE0009D0E32C081E00E94B80E123068F182E09F
:100EF0000E94B80E29C0DD2331F0112391F2802F1A
:100F00000E946E0421C0112399F2093349F49FEF26
:100F1000E7EEF3E09150E040F040E1F700C0000060
:100F2000802F0E941D0510C04C2F4F70602FC701ED
:100F30000E9465100E94580A0FC04C2F4F70602FFE
:100F4000C7010E94681008C088EF8C0D843020F41F
:100F50000E94FF220E941504DD20C9F00E94EA0DC4
:100F600080FD15C0F70112820E94E40D0E94F30873
:100F7000C7010E94E8070E94E40DDF91CF911F9105
:100F80000F91FF90EF90DF90CF900C941409DF91B8
:100F9000CF911F910F91FF90EF90DF90CF90089528
:100FA0000F931F93CF93DF93EC01688179818A813E
:100FB0000E94350A8C010E9490090E948108B801A4
:100FC000CE010E94B305DF91CF911F910F9108953B
:100FD000CF93DF93EC01988189812B813C81232B76
:100FE00031F08F3F31F481E09F3F19F403C081E07D
:100FF00001C080E080FD19C0CE010E94B4038111C0
:101000000CC00E94EE0D882381F08A81882369F04C
:1010100082E0DF91CF910C94B80ECE010E94D007F0
:10102000CE01DF91CF910C949103DF91CF91089580
:1010300080E090E00E942B2380E090E00E9441231A
:101040000E94360E0E94460E0E94680E0E94FB1AF5
:101050000C94CA1980910001909101010E949D2376
:101060000C9418080E94260E0C942A08E92FE29589
:10107000EF704E2F50E0FA013297EE30F105B0F4E8
:10108000EA59FF4F0C94D72B803F91F018F4883E1B
:1010900068F40EC0843F51F40BC0883E48F0813F95
:1010A00029F406C093FB882780F9089580E008950D
:1010B00081E00895FC01808191810E942A0A0E94AA
:1010C00036080895CF93DF9300D000D01F92CDB79C
:1010D000DEB70F900F900F900F900F90DF91CF9190
:1010E0000895CF93DF9300D000D000D0CDB7DEB706
:1010F00026960FB6F894DEBF0FBECDBFDF91CF911D
:101100000895089508950C9482080C9483080E9411
:1011100085086093EE017093EF018093F001909346
:10112000F1010C9418080C9487080F931F930091F9
:10113000EE011091EF012091F0013091F101602B4F
:10114000712B822B932B1F910F910C9487080F9377
:101150001F930091EE011091EF012091F001309169
:10116000F10160237123822393231F910F910C942B
:1011700087080F931F930091EE011091EF012091CA
:10118000F0013091F10160277127822793271F9189
:101190000F910C9487080C9482080E94CB086093EE
:1011A000EA017093EB018093EC019093ED010C94B4
:1011B000180860E070E0CB010C94CD080F931F93EA
:1011C00041E050E060E070E08A019B0104C0000F44
:1011D000111F221F331F8A95D2F7C901B8011F9131
:1011E0000F910C94CD080F931F9341E050E060E005
:1011F00070E004C0440F551F661F771F8A95D2F711
:101200008091EA019091EB01A091EC01B091ED0188
:101210008A019B01082B192B2A2B3B2BC901B801F2
:101220001F910F910C94CD080F931F9341E050E054
:1012300060E070E004C0440F551F661F771F8A9559
:10124000D2F740955095609570958091EA01909104
:10125000EB01A091EC01B091ED018A019B01082303
:1012600019232A233B23C901B8011F910F910C9424
:10127000CD080F931F9341E050E060E070E004C0A0
:10128000440F551F661F771F8A95D2F78091EA0198
:101290009091EB01A091EC01B091ED018A019B01CD
:1012A000082719272A273B27C901B8011F910F9149
:1012B0000C94CD080F931F930091EA011091EB015C
:1012C0002091EC013091ED01602B712B822B932B3F
:1012D0001F910F910C94CD080F931F930091EA0179
:1012E0001091EB012091EC013091ED01602371230D
:1012F000822393231F910F910C94CD080F931F937A
:101300000091EA011091EB012091EC013091ED0187
:1013100060277127822793271F910F910C94CD0886
:10132000089527E0929F800D1124E82FE695E69519
:10133000E695877051E001C0550F8A95EAF785E080
:10134000E89FF0011124E354FE4F20E030E070E00C
:101350004081CB01022E02C0969587950A94E2F750
:101360008170819584278523842781932F5F3F4F48
:101370002530310569F7089527E0929F800D1124EB
:10138000682F669566956695982F977085E0689F9B
:10139000B001112440E050E080E0FB01E40FF51FB4
:1013A000E354FE4F208130E0092E02C03695279588
:1013B0000A94E2F721703327042E01C0220F0A9409
:1013C000EAF7822B4F5F5F4F4530510531F70895A3
:1013D000BF92CF92DF92EF92FF920F931F93CF9322
:1013E000DF938C01C090EA01D090EB01E090EC011A
:1013F000F090ED018091EE019091EF01A091F0014C
:10140000B091F101C82AD92AEA2AFB2ACFE1D0E01B
:10141000D701C6010C2E04C0B695A7959795879560
:101420000A94D2F780FD04C0219790F7B12C07C031
:10143000BC2EB8018C2F0E94A0110197A9F38B2D0F
:10144000DF91CF911F910F91FF90EF90DF90CF90A0
:10145000BF900895CF93DF93EC010E94E809BE018D
:101460000E94A011DF91CF9108951F93CF93DF9336
:10147000EB019091BC01992321F0CB010E942A0A33
:1014800013C0882349F0CB010E94E809182F682F68
:10149000CE010E94910904C0CB010E94BC09182F03
:1014A000BE01812F0E94A011DF91CF911F9108955D
:1014B000EF92FF920F931F93CF93DF938C01892BB1
:1014C00009F46CC0F12CEE24E394E8012196F801B4
:1014D0008491843740F4843008F051C0813081F029
:1014E000823019F15BC0853709F444C0A8F19CE74C
:1014F000980F903708F052C08F770E941D0541C0A9
:101500000E5F1F4FFE01849190E2980F983050F4C7
:101510008770FE2D01C0FF0F8A95EAF78F2F0E947A
:10152000390E14C00E946E042DC00E5F1F4FFE01C5
:10153000849190E2980F983060F48770FE2D01C07E
:10154000FF0F8A95EAF78F2F0E943F0E0E94680EC8
:1015500019C00E941D0516C00E5F1F4FFE01C491E9
:10156000CC2381F08FE99FE00197F1F700C00000E4
:10157000C150F6CF0E5F1F4FFE01F49003C00E94D2
:101580006E048E018F2D882309F49FCFEFE9FFE0D1
:101590003197F1F700C000008150F5CFDF91CF9176
:1015A0001F910F91FF90EF9008951F93CF93DF93BA
:1015B000C091F20116E08091F301C81799F0D0E0D4
:1015C0001C9FF0011D9FF00D1124EC50FE4F408137
:1015D000518162817381848195810E947108219675
:1015E000C770E9CFDF91CF911F91089540912402F8
:1015F0005091250260912602709127028091280265
:10160000909129020C9471080F931F93CF93DF934D
:101610008091290282958F7009F05DC08091260229
:10162000882309F458C08091F2011091F301609170
:10163000240270912502C0912702D091280291E0E6
:101640006F3F09F090E0292F06E0811709F443C0AD
:10165000209721F07F3F21F030E003C031E001C04E
:10166000322F90E030FD34C0089FF001099FF00D4B
:101670001124DF01AC50BE4F11963C9111973713E6
:1016800027C03C91361324C012963C911297311119
:101690001FC013964D915C9114974C1B5D0B483CF9
:1016A0005105B0F4809129028F70806180932902E6
:1016B000E750FE4F80818F708061808384E292E0EA
:1016C0000E94E807DF91CF911F910F910C94D50AEA
:1016D00001968770BACFDF91CF911F910F91089536
:1016E0009F92AF92BF92CF92DF92EF92FF920F93B1
:1016F0001F93CF93DF93CDB7DEB761970FB6F89402
:10170000DEBF0FBECDBF8C0185E0F801DE011D9666
:1017100001900D928A95E1F7F801E2809091240200
:101720006091250220912702309128022115310570
:1017300031F06F3F31F481E09F3F19F403C081E045
:1017400001C080E0F82FF1709F2E80FD3FC1F801AD
:1017500040815181A380B48084E2C82E82E0D82EDB
:10176000F0902602F501E21BF30BFF2009F4D9C02B
:1017700080912902E83CF10508F095C0282F207FD0
:1017800009F052C0561313C0491311C0FE2CE110CA
:101790000EC08F708061809329020E94F60AC601F4
:1017A0000E94E80780912902F80185834CC1AB288B
:1017B00031F05F3F31F481E04F3F19F403C081E025
:1017C00001C080E080FD03C081E08E2502C080E082
:1017D00090E0F82FF170FF2E80FF1CC08091F20185
:1017E0002091F30136E0821709F40BC190E0389F95
:1017F000F001399FF00D1124EC50FE4F618156131A
:1018000006C06081461303C06281E61203C00196E0
:101810008770E9CFFE2CEE2009F415C180912902D2
:1018200081608093290254C0561306C0491304C036
:10183000E11002C0F80199C0C8010E945A0888232B
:1018400061F1EE2051F120912902822F82958F7053
:1018500090E0029774F0809124029091250298877D
:101860008F831986BB86AA862C87CE0107960E9495
:10187000E80786E0F801A4E2B2E001900D928A95B3
:10188000E1F70E94040B0E94F60A0AC0561711F1F4
:10189000C8010E945A0881112CC0C8010E94E807A3
:1018A000FF24F394D0C0282F207F81F77A2DB98AA6
:1018B000A88A6E2D89890E94620884E292E00E94C3
:1018C000E80786E0F60111928A95E9F70E94F60A88
:1018D000F12CB9C04913DCCFE110DACFF8018583D0
:1018E000C8010E94E80786E0F60111928A95E9F79F
:1018F000AAC0EE2091F220912902822F82958F704A
:1019000090E002970CF4B5CF8091240290912502CB
:101910009A8389831B82BD82AC822E83CE0101967D
:10192000A6CFE83CF10508F044C0FE2CEE2009F4F7
:10193000B4CF561330C049132EC02091290220FD88
:1019400021C0822F82958F70482F50E0411551059C
:10195000C9F0F80125834F30510541F08F5F982F72
:101960009295907F822F8F70892B8583C8010E946A
:10197000E80786E0F801A4E2B2E001900D928A95B2
:10198000E1F73CC086E0F801A4E2B2E001900D92DC
:101990008A95E1F758C0C8010E945A08811169CFA1
:1019A00080912902816080932902C8010E94E80782
:1019B0004AC07A2DB98AA88A6E2D89890E94620848
:1019C00086E0F60111928A95E9F718C0EE2009F435
:1019D00064CFC8010E945A08F82E882309F45DCF0D
:1019E00086E0F801A4E2B2E001900D928A95E1F759
:1019F00084E292E00E9468040E94040B0E94F60AAE
:101A000022C04D875E878D859E850E942A0A292FD8
:101A100022952F70223028F49F7039F0811105C073
:101A20000BC0243028F49F7049F4805E883020F089
:101A3000C8010E94E8079F2CF92C05C0F801958188
:101A4000907F99F7F9CF8F2D61960FB6F894DEBF8E
:101A50000FBECDBFDF91CF911F910F91FF90EF90FF
:101A6000DF90CF90BF90AF909F9008951F93CF933A
:101A7000DF93CDB7DEB72C970FB6F894DEBF0FBE5D
:101A8000CDBF4F83588769877A878B879C87CE0124
:101A900007960E94700B8823D1F09F8188852A8544
:101AA0003B85232B31F08F3F31F481E09F3F19F4C8
:101AB00003C081E001C080E080FD47C04F815885B0
:101AC00069857A858B859C850E9471083EC086E079
:101AD000FE013796DE01119601900D928A95E1F78D
:101AE000FF81E8856A857B856115710531F0EF3FDF
:101AF00031F481E0FF3F19F403C081E001C080E0D0
:101B000080FD23C02091F30130E0C9010196877068
:101B100099274091F20150E084179507F1F1F9837C
:101B2000EA837D836C8396E0929FD001939FB00DF2
:101B30001124AC50BE4FFE01319601900D929A9542
:101B4000E1F78093F3010E94D50A16E08091F2013B
:101B50009091F301891771F1189FC00111248C50E5
:101B60009E4F0E94700B882329F1E091F2011E9F85
:101B7000F0011124EC50FE4F40815181628173814C
:101B8000848195810E9471088091F20190E0019614
:101B9000877099278093F201D9CF0E943208109262
:101BA000F3011092F201E4E2F2E086E0DF011D921F
:101BB0008A95E9F72C960FB6F894DEBF0FBECDBF1D
:101BC000DF91CF911F91089580912A028595859587
:101BD0008595089580912A028770089590912A0230
:101BE000977081E009F480E008959091A80292FB3B
:101BF000222720F9281751F080FB92F99093A80230
:101C00008091A7029091A8020C94F90E08958091FA
:101C1000A80282FB882780F991E089270C94F50DB2
:101C200081E00C94F50D80E00C94F50D8091360266
:101C3000089590913602892B8093360208958095FD
:101C400090913602892380933602089510923602CD
:101C5000089590913502892B8093350208958095DF
:101C600090913502892380933502089510923502B0
:101C7000089590913402892B8093340208958095C1
:101C80009091340289238093340208951092340293
:101C9000089580912B02089508950C944C0E0C9495
:101CA0004D0E9091A80292FD08C090912B029817BA
:101CB00021F080932B020C944F0E089580912B02FB
:101CC000882329F010922B0280E00C944F0E089587
:101CD000E0910001F0910101809136028083E09152
:101CE0000001F0910101908180913502892B808360
:101CF000E0910001F0910101908180913402892BE3
:101D0000808380912B02882381F0E0910001F09183
:101D100001019081892B80838091000190910101C4
:101D20000E94572381110E945E0E809100019091C4
:101D300001010C9412230C944C0E9091A80292FD78
:101D400010C098E0899F90011124262B20932A022D
:101D50000E94F30880912A028595859585950C94BB
:101D60009B0E0C94F30810922A0280E00C949B0EB8
:101D700020912A028095822380932A02982F9770BF
:101D800041F430E0482F082E000C550B241735077E
:101D900021F49091A80292FF07C0859585958595BD
:101DA0000E9414090C94B30E089580E090E00E9404
:101DB000012C21E0893E9E4F09F020E0822F0895FA
:101DC00082E090E00C94F32B83E090E00C94F32BF2
:101DD000CF9384E090E00E94F32BC82F82E290E042
:101DE0000E94F32B2C2F30E0A901582BCA01CF9170
:101DF0000895CF93C92F682F84E090E00E94072CAC
:101E00006C2F82E290E0CF910C94072CAB01BC01C7
:101E10008FE090E00C94192CAB01BC0183E190E0C1
:101E20000C94192C60E070E0CB010C940C0F60E076
:101E300070E0CB010E94060F0C94120F69EE7EEF4A
:101E400080E090E00E94252C60E082E090E00E941B
:101E5000072C60E083E090E00E94072C1092EE01D6
:101E60001092EF011092F0011092F10160E084E015
:101E700090E00E94072C60E082E290E00E94072C34
:101E800060E085E090E00E94072C60E086E090E052
:101E90000E94072C6FEF87E090E00E94072C40E043
:101EA00050E0BA0188E090E00E94192C60E08DE0DB
:101EB00090E00E94072C40E050E0BA0188E190E0F9
:101EC0000E94192C60E087E190E00E94072C40E01E
:101ED00050E0BA018CE190E00E94192C60E070E0C3
:101EE00080E290E00E94252C40E050E0BA0188E1B9
:101EF00090E00E94192C0C94170F0C941E0F682F61
:101F00008EE090E00C94072C0E94792460934602A6
:101F10007093470280934802909349026093420273
:101F2000709343028093440290934502089585B7CD
:101F3000806885BF85B7806885BF08950C94641458
:101F400008950C94A00F0C94A00F0C94A30F0C9464
:101F5000A00F0C94A70F0C94A00F0E94970F8CE772
:101F600092E10E94E7240E94AB0F0C94A90F0E94FB
:101F7000A10F0C94A00F0E9464240E94A4230E942D
:101F80005F130E949A1E0E947F1D0C94A50F9F92C2
:101F9000AF92BF92CF92DF92EF92FF920F931F9377
:101FA000CF93DF93CDB7DEB72A970FB6F894DEBF95
:101FB0000FBECDBF0E94D91381110E94840F88E308
:101FC000A82E82E0B82E00E010E0902E802F0E9414
:101FD000A312D82EF501C1905F01C826B1F40F5F9E
:101FE0001F4F0A30110589F78FEF89838A831B827F
:101FF0000E946D248160782F9D838C8349815A8152
:102000006B818D810E941E042FC080914A0281FD48
:102010000E94A912E12CFF24F3948C2D8F21F1F062
:102020000E949E0F882399F0EE829F82DF2081E03C
:1020300009F480E088870E946D248160782F9A8758
:1020400089874E815F8168858A850E941E04F80118
:10205000E85CFD4F8081F826F08206C0E394FF0C17
:10206000F7E0EF12DACFBBCF0E94E8190E94FF22FF
:10207000909137028917B9F00E94FF2280933702AE
:102080002A960FB6F894DEBF0FBECDBFDF91CF9179
:102090001F910F91FF90EF90DF90CF90BF90AF9086
:1020A0009F900C9415042A960FB6F894DEBF0FBECD
:1020B000CDBFDF91CF911F910F91FF90EF90DF90F7
:1020C000CF90BF90AF909F90089580E090E00895EA
:1020D000089526E4829FC0011124FC0127E0729F2D
:1020E000E00DF11D1124E60FF11DEE0FFF1FE4506E
:1020F000FF4F859194910895880F991FFC01E85432
:10210000FC4F859194910895CF93DF930E94A51180
:10211000EC01811520E5920708F03FC0811540E4ED
:10212000940708F0D2C0883E910500F5803E9105E5
:1021300008F002C1883A910570F4853A910508F0DB
:10214000A6C08130910509F49FC008F4F2C004973D
:1021500008F0F2C0EEC08F3B910508F4A1C0803CAE
:10216000910508F4E6C0805C9109A5C0811550E294
:10217000950760F4C11581E0D80708F0DDC0CD3EB9
:10218000D10508F4D6C0CE019065D7C0811520E3F3
:10219000920708F093C09F708EC0811545E59407A3
:1021A00008F046C0811554E5950708F0A6C0C11592
:1021B00082E5D80718F5C11521E5D20708F088C0D7
:1021C000CE01F4E096958795FA95E1F7282F2370D4
:1021D0003C2F337081E090E002C0880F991F3A9540
:1021E000E2F79C68922B2C2F2F702695269540E2C3
:1021F000249F90011124822B932B9FC09E0123705A
:1022000033279C2F96959695C115D34508F065C048
:1022100041E050E002C0440F551F2A95E2F780E2EA
:10222000989F90011124CA01822B932B9C6885C032
:10223000811559E5950798F4C11588E5D80708F088
:1022400061C0C11526E5D20708F073C08C2F0E942B
:1022500039128F7190E0982F882790626EC0811597
:102260004AE5940708F453C090568115904208F04F
:1022700060C08D2F8F710E9439129E01332730620A
:102280008F71A901582B53C081E090E056C0855A48
:10229000C82FD0E0CE55DE4F888190E090644DC0CD
:1022A000885AC82FD0E0CC0FDD1FCC58DE4F888174
:1022B0009981946442C00E947C103FC09927D3FF4B
:1022C00002C0986C3AC0906C38C09F70906A35C05C
:1022D0009C2F8827816F906A30C041E050E002C097
:1022E000440F551F2A95E2F780E2989F9001112430
:1022F000CA01822B932B9A6820C0982F8827846F5D
:10230000906A1BC09C2F8827806F906A16C08F70C0
:102310000E9439129E0194E0369527959A95E1F72F
:102320002F7030E0322F22273069A901482BCA01D3
:1023300004C080E090E001C0CE01DF91CF9108950C
:102340000E9469100E94841008958238910569F1F5
:10235000B0F48133910509F46DC048F489329105D8
:1023600009F463C08A32910509F469C00895853380
:10237000910509F455C089339105B9F00895833E5C
:10238000910569F138F4803E9105B1F0823E9105E6
:1023900009F10895863E9105A9F1873E9105B9F1AD
:1023A000843E910509F064C023C02091A70220FD5E
:1023B0004FC021FD4DC008958091A70280FD44C00B
:1023C0008091A80280FF44C08091A70284FD42C092
:1023D00083EE4DC08091A70282FF38C0F5CF809177
:1023E000A70282FD33C08091A80280FD31C0ECCFEE
:1023F0008091A80281FF32C08091A70284FD2AC08B
:1024000087EE35C08091A70283FF26C0F5CF80916B
:10241000A70283FD21C08091A80281FD1FC0ECCFDF
:102420008091A70285FD1CC01DC08091A70285FD7B
:1024300019C016C08091A70286FD16C017C08091F2
:10244000A70286FD13C010C089E311C082EE0FC041
:1024500080EE0DC080E00BC086EE09C084EE07C0A0
:1024600089E205C085E303C08AE201C081E390E010
:1024700008959091A70292FF0DC0282F287128304F
:1024800019F4877F846006C0282F2471243011F44A
:102490008B7F886093FF0DC0282F2871283119F495
:1024A000877E846106C0282F2471243111F48B7E2D
:1024B00088612091A80220FF0DC0382F3871383074
:1024C00019F4877F816006C0382F3171313011F4E3
:1024D0008E7F886021FF0DC0282F2871283119F4C4
:1024E000877E816106C0282F2171213111F48E7EF3
:1024F000886194FD877E089580E0089508950E9484
:10250000D50E811102C00E947D0F0E94E00E8093C3
:102510004A020E94E80E9093A8028093A7020E94AC
:102520007E120E94E40E682F70E080E090E00E942E
:1025300093086091EA017091EB018091EC01909118
:10254000ED010C94CB08E82FF0E0ED54FD4F8081B5
:102550000895089580EA8A95F1F7089500C00895D6
:102560000C94AA1208950C94B2120C94B3120C9409
:10257000B2120C94B712F894E82FE295EF70F0E0E5
:1025800031A1282F2F7081E090E001C0880F2A959B
:10259000EAF7982F9095932391A392A1892B82A378
:1025A0007894089508950C94D2120F931F93CF93AB
:1025B000DF93CCEAD1E089918F3F11F00E94BB12EA
:1025C00081E0C13BD807B9F7C5EAD1E00CEA11E0D8
:1025D00089918F3F11F00E94BB120C171D07C1F7A4
:1025E000DF91CF911F910F910895CF92DF92EF92DB
:1025F000FF920F931F93CF93DF938C01C62FD0E0F0
:10260000CE0184559E4F7C01FC0190819F3F09F4CF
:102610004DC0D62EF894E92FE295EF70F0E081A13D
:102620009F7021E030E001C0220F9A95EAF7822BDB
:1026300081A382A12095282322A378940E94AE1220
:10264000E5EAF1E020E030E0C12C51E041914F3F5C
:10265000B1F0A42FA295AF70B0E090968C9190E06D
:102660004F7002C0959587954A95E2F780FD07C0A7
:10267000852F022E01C0880F0A94EAF701C080E07E
:10268000C82A2F5F3F4F2730310501F7F7018081BE
:102690008F3F11F00E94BB1261E0C11001C060E0E9
:1026A0008D2D0E94B012C00FD11FC882DF91CF9133
:1026B0001F910F91FF90EF90DF90CF9008950E94AF
:1026C0007E148091020180910201811102C095E087
:1026D00001C090E09093BE0285E0891B8093BD020B
:1026E0000E94D512E9EAF2E0A3EBB2E011921D924A
:1026F00082E0E33BF807D1F785E00E942D140E94A9
:102700009C030C9488140F931F93CF93DF9300D0F6
:1027100000D01F92CDB7DEB70E9464146091BE0254
:10272000882379F18E010F5F1F4F85E0F801119228
:102730008A95E9F7862F90E0B8018D549D4F0E944D
:102740009614E091BD029E012A5F3F4FF0E0ED54E8
:10275000FD4FD801882361F010E08D91908198178A
:1027600011F0808311E03196A217B307B1F706C0CC
:1027700011921D92A217B307D9F711E00E94A2038C
:102780000DC070E06D547D4F8091BD0290E08D547E
:102790009D4F0E9426150E94D31210E0812F0F90AA
:1027A0000F900F900F900F90DF91CF911F910F918D
:1027B0000895EF92FF920F931F93CF93DF93CDB7BE
:1027C000DEB72A970FB6F894DEBF0FBECDBF8E01DD
:1027D0000F5F1F4F8AE0F80111928A95E9F7F12CFB
:1027E0006F2DC8010E94F512F394F5E0FF12F8CFA7
:1027F0004AE050E0B80189EA92E00E94DD2B7C01BA
:1028000021E0892B09F420E0E114F10441F08AE091
:10281000F801A9EAB2E001900D928A95E1F7609182
:10282000BE0270E06D547D4F45E089EA92E00E945F
:102830002E14EF2819F40E94831302C081E090E067
:102840002A960FB6F894DEBF0FBECDBFDF91CF91B1
:102850001F910F91FF90EF9008950895FF920F93AD
:102860001F93CF93DF938C01F62ED72FC42F2223F3
:1028700049F081E080934D020E946D2490934C02B8
:1028800080934B0280914D028823C1F080914B02CE
:1028900090914C020E948524059780F0EF2DFD2F2A
:1028A000D8014C2F50E0CD01801B910B8417950768
:1028B0001CF48D918193F7CF10924D02DF91CF914F
:1028C0001F910F91FF9008958091500281110DC0CA
:1028D0000E94A22B811102C082E001C081E080939E
:1028E0005002823011F40E949D2B81E090915002A1
:1028F000913009F080E008950C9464140E947C14D7
:10290000809302010E94641481110C94CE140895E6
:102910000E946414811102C00C94D014089581E0C7
:10292000909151029A3008F080E008950F931F9320
:10293000CF93DF93EC018B01809151028A3038F400
:10294000B801CE010E94241581111DC00AC08091DA
:102950004E0290914F020E948524843F914080F75F
:1029600015C0809151028F3F19F08F5F8093510203
:10297000809151028A3060F00E946D2490934F0242
:1029800080934E0203C01092510202C080E001C049
:1029900081E0DF91CF911F910F9108950C94352123
:1029A0000C943821EF92FF920F931F93CF93DF93F4
:1029B0007901C82F880FDD0B41155105A9F08AE078
:1029C0008C9FF0018D9FF00D1124ED5FFE4F8381F0
:1029D00094818E5A9D4F228130E04217530708F4AC
:1029E0009A01A9010E94EA2BCE010E944222892B62
:1029F00009F50115110501F18AE08C9FF0018D9F09
:102A0000F00D1124ED5FFE4F458150E004171507CE
:102A100008F4A8018AE08C9FF0018D9FF00D11242D
:102A2000ED5FFE4F668177816E5A7D4FC7010E9430
:102A3000EA2B02C080E001C081E0DF91CF911F91BD
:102A40000F91FF90EF9008950C948B160C94AF1695
:102A50000F931F93CF93DF9300D000D0CDB7DEB795
:102A60006091710270917202809173029091740270
:102A70000E949424643671058105910528F10E9415
:102A8000CA23DC01CB010296A11DB11D89839A8363
:102A9000AB83BC8300E010E020E030E044E050E095
:102AA000BE016F5F7F4F82E00E94D214182F8823EF
:102AB00061F00E9479246093710270937202809396
:102AC00073029093740201C011E0812F0F900F9058
:102AD0000F900F90DF91CF911F910F910895AF92BA
:102AE000BF92CF92DF92EF92FF920F931F93CF93FB
:102AF000DF937C015B016A010E948F14811103C086
:102B000001E010E002C00AE010E0C1E0D0E0F8947B
:102B1000B501C701F60109957894811115C0219678
:102B20000C171D0794F0CC9F9001CD9F300D300DF8
:102B3000112480E090E045E34A95F1F7000001960A
:102B400082179307C1F7E3CF81E0DF91CF911F9107
:102B50000F91FF90EF90DF90CF90BF90AF900895CE
:102B60000F931F93CF93DF93CDB7DEB728970FB6A0
:102B7000F894DEBF0FBECDBFCE0101960E94B81DF6
:102B8000188560917502709176028091770290911C
:102B900078020E949424643671058105910510F431
:102BA0001123D9F000E010E020E030E048E050E0F0
:102BB000BE016F5F7F4F83E00E94D214882359F0DB
:102BC0000E94792460937502709376028093770255
:102BD0009093780202C080E003C00E94B51D81E09E
:102BE00028960FB6F894DEBF0FBECDBFDF91CF9110
:102BF0001F910F910895AF92BF92CF92DF92EF9203
:102C0000FF920F931F93CF93DF9300D000D000D09B
:102C1000CDB7DEB77B01C090B601D090B70101E01F
:102C200010E09E012A5F3F4F40E050E060E070E01E
:102C300080E00E94D214182F882309F43EC0560168
:102C40008FEFA81AB80A60916D0270916E028091A0
:102C50006F02909170020E94942464367105810580
:102C6000910518F105E010E09E012F5F3F4F40E015
:102C700050E060E070E081E00E94D214182F65E01F
:102C800070E0C5010E949B1E91E02E81281390E008
:102C9000192339F10E94792460936D0270936E02BA
:102CA00080936F029093700211C065E070E0C501DF
:102CB0000E949B1E9E818913D5CF85E0F601319637
:102CC000DE01119601900D928A95E1F7112349F0EA
:102CD00085E0FE013196A8E6B2E001900D928A955A
:102CE000E1F785E0E8E6F2E0D70101900D928A95E0
:102CF000E1F7812F26960FB6F894DEBF0FBECDBF49
:102D0000DF91CF911F910F91FF90EF90DF90CF90C7
:102D1000BF90AF9008950F931F93CF93DF93EC0173
:102D20008B014BEF55E10E946F15882391F048E22B
:102D300055E1B801CE010E946F15882351F040EB98
:102D400055E1B801CE01DF91CF911F910F910C9405
:102D50006F1580E0DF91CF911F910F9108950F9330
:102D60001F93CF93DF93F894C091B601D091B70130
:102D7000CE01019625E0FB01DC0101900D922A9520
:102D8000E1F765E070E00E949B1E88837894F894D8
:102D90006E817F818885998500916402109165021A
:102DA00020916602309167026017710782079307CE
:102DB00051F0609364027093650280936602909371
:102DC00067020E94AD237894F8948989882331F0B2
:102DD00060E0CE010A960E94CB1D198A7894DF919B
:102DE000CF911F910F9108950E94E5230E944826DC
:102DF0000E9461260E9473260E94B70FFBCF893282
:102E000089F1F0F4843171F1B0F4873009F077C0C2
:102E10008EE18093320182E3809331018AE08093D6
:102E2000300184E180932F0188E080932C0188E2B7
:102E300080932B0164C092EE980F9A30F0F05FC03F
:102E4000803509F444C028F48F3409F058C08AE072
:102E50003FC0813529F0823509F051C081E038C08A
:102E60008FEF36C080917B02882379F110927B022C
:102E700010927A021092790242C08D5180937B02A7
:102E8000833099F038F4813069F08230D9F481E3ED
:102E900091E00DC0853099F078F0863099F48BE29E
:102EA00091E005C082E391E002C080E391E090935D
:102EB0007A028093790223C08FE291E0F8CF8CE20E
:102EC00091E0F5CF10927B021AC080E0089586EF62
:102ED000E0917902F0917A02309789F02081082EF2
:102EE000000C990B820F911D8F3F910519F014F082
:102EF0008FEF04C097FF02C0108201C0808381E081
:102F000008950F931F9341E050E060E070E08A0164
:102F10009B0104C0000F111F221F331F8A95D2F797
:102F2000C901B8010E9493081F910F910C943208B7
:102F30008B3109F468C058F58B3009F486C078F4F9
:102F4000863009F445C020F4853009F44BC07FC0B9
:102F5000873009F44AC0883009F477C078C08031DE
:102F600009F464C068F48E3009F071C080914A029F
:102F700082FB222720F991E0922790FB82F94CC036
:102F8000863109F462C0893109F45FC060C08A32B9
:102F9000E1F060F4873209F455C028F48E3108F46A
:102FA00056C08D5150C08932E9F051C0833450F47D
:102FB0008A3308F045C0853309F444C0883309F4E6
:102FC00044C045C08334F1F142C00E947D0F3DC032
:102FD00080914A02817F8E7F80934A0281E08093B4
:102FE0007C0208950E94A50330C080914A02982F68
:102FF0009095917090FB80F980934A02911125C0C1
:10300000897F877F10C080914A0281FB222720F9A7
:1030100091E0922790FB81F980934A029923A9F0CD
:1030200080914A02816080934A020FC080914A02D7
:1030300083FB222720F991E0922790FB83F9ECCFC4
:10304000895301C080E00E94811781E0089580E0EB
:10305000089580E008950C942918CF93C82F80918B
:103060007C02813069F038F08230C1F58C2F0E94EB
:10307000FF1681E039C00E94160E823289F504C025
:103080000E94160E823261F48C2F0E942B1881113F
:1030900004C08C2F0E9498171FC081E090E01CC0D4
:1030A0008C2F0E942918811116C0C43189F058F460
:1030B000CB3089F0C031B1F482E080937C0288E3A8
:1030C0000E94FF1608C0C93219F0C83321F00AC0A7
:1030D00010927C0207C081E0817006C010927C02D1
:1030E00080E002C080E0F8CFCF9108958091830204
:1030F00080FF0BC06091300185E0689FB001112412
:1031000075956795759567952BC081FF09C060918E
:10311000300185E0689FB00111247595679520C046
:1031200082FF07C06091300185E0689FB0011124E3
:1031300017C0909182029923D1F060912F019617C8
:1031400088F72091300185E0289F90011124929FFB
:10315000A001939F500D112470E0CA010E94C32B5F
:103160006038710540F46115710519F406C065E019
:1031700070E0862F08958FE7089581E0089580918B
:10318000830280FF08C060912C0170E075956795FF
:103190007595679521C081FF06C060912C0170E094
:1031A0007595679519C082FF04C060912C0170E08D
:1031B00010C090918102992399F060912B0196178C
:1031C000A0F780912C01899FC001112470E00E941A
:1031D000C32B6038710540F46115710519F406C000
:1031E00061E070E0862F08958FE7089581E00895EB
:1031F0008D3E21F40E947618819504C08E3E29F4FC
:103200000E9476188093870208958F3E21F40E94D1
:103210007618819504C0803F29F40E947618809327
:1032200086020895893F19F40E94BF1805C08A3F9D
:1032300031F40E94BF1881958093880208958B3FD6
:1032400021F40E94BF18819504C08C3F29F40E948C
:10325000BF188093890208959FE0980F983078F402
:1032600021E030E0A90102C0440F551F9A95E2F712
:10327000CA0190918502892B8093850208958D3F24
:1032800021F48091830281600BC08E3F21F48091F4
:103290008302826005C08F3F29F48091830284609D
:1032A0008093830208958D3E39F49091870297FFB1
:1032B00035C01092870259C08E3E29F49091870242
:1032C0001916BCF32BC0909186028F3E29F497FF0C
:1032D00025C01092860249C0803F19F41916CCF31C
:1032E0001DC090918802893F29F41916BCF41092F0
:1032F00088023BC08A3F19F497FF10C0F8CF8B3F7C
:1033000039F49091890297FF09C0109289022DC06B
:103310008C3F21F4909189021916BCF39FE0980F1D
:10332000983080F421E030E0A90102C0440F551F1D
:103330009A95E2F7CA01809590918502892380933E
:10334000850213C08D3F21F4809183028E7F0BC0D4
:103350008E3F21F4809183028D7F05C08F3F29F439
:10336000809183028B7F80938302809186028111FA
:1033700006C080918702811102C010928202809162
:103380008802811106C080918902811102C01092C9
:10339000810208950E946D2420918602211104C0AB
:1033A00020918702222321F09093800280937F0254
:1033B00020918802211104C020918902222321F04A
:1033C00090937E0280937D0284E892E00C941D230A
:1033D000EF92FF920F931F93CF93DF9300D000D013
:1033E00000D0CDB7DEB786E0E4E8F2E0DE0111966A
:1033F00001900D928A95E1F7E0908602F0908702A5
:103400000091880210918902109286021092870220
:103410001092880210928902E11003C0FF2009F483
:103420005DC080917F02909180020E948524AC0152
:1034300090918202992339F02091310130E02417D4
:10344000350758F04BC0209132018AE0289F900147
:1034500011242417350718F041C09F3F19F09F5FD2
:1034600090938202EE2061F00E9476181E1414F0F0
:103470009FEF01C091E0989F902D112490938602B8
:10348000FF2061F00E9476181F1414F09FEF01C016
:1034900091E0989F902D112490938702309186029D
:1034A0003323E1F0209187022223C1F045EB34035E
:1034B000C0011124992319F09093860203C081E082
:1034C0008093860235EB2303C0011124992319F060
:1034D0009093870203C081E080938702011103C0AB
:1034E000112309F45DC080917D0290917E020E94BB
:1034F0008524AC0190918102992339F020912D010E
:1035000030E02417350758F04BC020912E018AE097
:10351000289F900111242417350718F041C09F3FC0
:1035200019F09F5F90938102002361F00E94BF1801
:10353000101614F09FEF01C091E0989F902D112478
:1035400090938802112361F00E94BF18111614F0A5
:103550009FEF01C091E0989F902D112490938902D4
:10356000309188023323E1F0209189022223C1F0B7
:1035700045EB3403C0011124992319F0909388027C
:1035800003C081E08093880235EB2303C00111243E
:10359000992319F09093890203C081E080938902F6
:1035A0008091860281110BC080918702811107C032
:1035B00080918802811103C08091890281110E944B
:1035C000CA19EB82FC820D831E8386E0FE013196D0
:1035D000A4E8B2E001900D928A95E1F726960FB625
:1035E000F894DEBF0FBECDBFDF91CF911F910F9139
:1035F000FF90EF900895E4E8F2E086E0DF011D928D
:103600008A95E9F710928202109281021092830249
:103610000895EF92FF920F931F93CF93DF938B0147
:10362000682F11110AC0442329F0E82FF0E0E85474
:10363000FC4F6491762F862F75C0212F30E0E82F44
:10364000F0E0442321F0E854FC4FE491F0E046E040
:10365000049FC0011124CFEFD0E0BE010E94AF2B28
:103660004BEA4603C001479F900D1124800F911D26
:10367000800F911D982F990F890FAE01421B530B9C
:103680004E9FD0014F9FB00D5E9FB00D11249B2F18
:10369000189FA0011124452F55278E01041B150BDF
:1036A0000E9FA0010F9F500D1E9F500D11247E01F3
:1036B000E81AF108E29E8001E39E100DF29E100DC3
:1036C0001124212F3327C21BD30BCE9F9001CF9FF4
:1036D000300DDE9F300D112462307105A9F048F4E1
:1036E0006115710569F061307105C9F48B2F752F73
:1036F0000DC06430710581F058F06630710579F4C1
:103700007E2F8B2F932F0DC0832F7B2F9E2F09C0D1
:103710008E2F7B2F952F05C08E2F732F02C07E2FEB
:10372000852F692FDF91CF911F910F91FF90EF901F
:10373000089541E00E94091B08950E94991B089575
:10374000CF93DF93762FE901682F842F0E949D1B72
:10375000798368838A83DF91CF9108958091C00235
:10376000982F9695913021F0817082608093C002ED
:10377000089588E090E00C94FB2BCF92DF92EF92BB
:10378000FF926B017C010E94AE1BB701A60188E08D
:1037900090E0FF90EF90DF90CF900C94192CE0EC2C
:1037A000F2E083E0808311828FEF8283838314822F
:1037B000ABE8B2E012968C911297836012968C93CC
:1037C00060817181828193810C94BD1B9091C402B0
:1037D000933018F49F5F9093C402882351F0609156
:1037E000C0027091C1028091C2029091C3020C94F8
:1037F000BD1B089581E00C94E61B9091C4029923AF
:1038000019F091509093C402882351F06091C00246
:103810007091C1028091C2029091C3020C94BD1BB1
:10382000089581E00C94FD1B70E00C946F1E609174
:1038300034018091C00280FF0AC08091330123E0EF
:10384000829FC00111248B539D4F0C94141C8091B6
:10385000350190913601891780F7E82FF0E09F013C
:10386000220F331FE20FF31FEB53FD4F1182108223
:1038700012828F5FF0CFE0ECF2E080818E7F808358
:1038800060817181828193810E94BD1BEBE8F2E02F
:103890008281816082832FEF80E792E02150804017
:1038A0009040E1F700C000000C94171CE0ECF2E03F
:1038B00080818E7F8083EBE8F2E082818160828369
:1038C0002FEF80E792E0215080409040E1F700C068
:1038D00000000C94171C9091C00290FF16C09091AC
:1038E000350120913601921770F4E92FF0E0DF01E5
:1038F000AA0FBB1FEA0FFB1FEB53FD4F81836083B1
:1039000042839F5FF0CF0C94171C0895EF92FF92B3
:103910000F931F93CF93DF9300D01F92CDB7DEB7E5
:103920009091C00290FF3DC0E22E142F062FF82E7A
:10393000E92FE695F0E0E854FE4F808180938B02FA
:103940009E7F923059F49E012F5F3F4F8F2D0E9432
:10395000A01B4B8169818A810E946B1C8091C102EE
:10396000F81208C08091C202081304C08091C302FB
:10397000181729F080918D02826080938D02F09259
:10398000C1020093C2021093C302EE2051F0609175
:10399000C0027091C1028091C2029091C3020E9444
:1039A000BD1B0F900F900F90DF91CF911F910F9142
:1039B000FF90EF900895E0ECF2E09181282F438191
:1039C000628188E0890F0C94861C81E00C94DB1CDA
:1039D000E0ECF2E09181282F4381628188EF890F2A
:1039E0000C94861C81E00C94E81CE0ECF2E062810F
:1039F00021E1620F08F46FEF282F438181810C943D
:103A0000861C81E00C94F51CE0ECF2E0628121E17F
:103A1000621B08F460E0282F438181810C94861C8E
:103A200081E00C94041DE0ECF2E0438121E1420FBF
:103A300008F44FEF282F628181810C94861C81E06D
:103A40000C94131DE0ECF2E0438121E1421B08F4E9
:103A500040E0282F628181810C94861C81E00C94C7
:103A6000221D20E00C94861C8091C00280FF1DC0A6
:103A7000817082608093C00280918D02816080930A
:103A80008D02662351F06091C0027091C102809155
:103A9000C2029091C3020E94BD1B4091C30260917B
:103AA000C2028091C1020C94311D0895682F81E0FB
:103AB0000C94341D81E00C94561D682F9091C00227
:103AC00096958FEF890F09F481E00C94341D81E005
:103AD0000C945D1D61E00C94341DE0ECF2E08081FB
:103AE0008160808386950C946A1D8091C00280FD60
:103AF0000C943B1C0C946D1D60E00C94341D809163
:103B00008A02811131C00E94D50E811104C00E9429
:103B10007D0F0E94CF1B0E94B91B6093C00270935F
:103B2000C1028093C2029093C30280918D02836090
:103B300080938D026E7F61F40E94CF1B0E94B91B9F
:103B40006093C0027093C1028093C2029093C3023B
:103B50000E94AE1B8091C00280FF03C086950E9428
:103B60007C1D81E080938A02089510928D02089551
:103B700025E0E0ECF2E0DC0101900D922A95E1F7FE
:103B800020918B0230918C0240918D02FC012583A3
:103B90003683478308951F93CF93DF93EC01162F4D
:103BA0008F8180FF0FC0888180FF0AC08091C00292
:103BB00081608093C002888186950E94341D02C076
:103BC0000E94561C8F8181FF09C0212F4B816A8181
:103BD0008981DF91CF911F910C94861CDF91CF9149
:103BE0001F910895882311F0FA0101C0FB01099487
:103BF0001F93CF93DF93FB01128111116BC0EC0176
:103C00000E94160E8272CA3CFCE5DF0709F450C020
:103C1000C0F4C63CECE5DE07E1F148F4C43C9CE5A9
:103C2000D90759F178F5C33CDC4521F121C0C83CE6
:103C30009CE5D90799F1B8F545EE5CE162EF7CE1CE
:103C400025C0CE3CFCE5DF0709F441C050F4CC3C74
:103C5000ECE5DE0791F1B0F54FE15DE16EE27DE16B
:103C600015C0C73D8CE5D807A8F1CE35DD4591F1EB
:103C700011E030C00E94751D2DC047E65DE16AE588
:103C80007DE104C04AE55DE167E67DE10E94F21D49
:103C900021C042EF5CE165EE7CE1F8CF40E15DE1FF
:103CA00061E07DE1F3CF41E05DE160E17DE1EECFF8
:103CB0004EE25DE16FE17DE1E9CF41E15CE16AEF78
:103CC0007BE1E4CF4AEF5BE161E17CE1DFCF81E0C2
:103CD0000E946A1D812FDF91CF911F910895539A01
:103CE0002BB1277F3BB138604FB7F894FC01CB0173
:103CF000880F991F680F791F6E0F7F1FE617F70750
:103D000089F0819198E03BB9000000C087FF2BB992
:103D1000880F000000C000C000C02BB900C09A95F9
:103D200091F7ECCF4FBF8FE594E00197F1F700C01A
:103D3000000008950895FC01680F791F8FEF91E34B
:103D4000E617F70771F02191822728E030E087FF1E
:103D500003C0880F892701C0880F21503109B9F7A6
:103D6000EFCF08950F931F93CF93DF93C42FD22FDC
:103D7000FC0182818823C9F0409390020E946D2447
:103D800090938F0280938E0280E28C0F883008F02F
:103D900057C0C77081E001C0880FCA95EAF7DF916C
:103DA000CF911F910F910C94A5058091900248131B
:103DB00030C080918E0290918F020E948524883CB1
:103DC000910538F510E21D0FCD17B9F080E28C0F88
:103DD000883040F4C77081E001C0880FCA95EAF7C7
:103DE0000E94AC05183028F581E09D2F977001C026
:103DF000880F9A95EAF70E94A505802F0E949C05DE
:103E00001830F0F4D77081E001C0880FDA95EAF736
:103E10000AC080E28C0F883098F4C77081E001C03E
:103E2000880FCA95EAF7DF91CF911F910F910C94FB
:103E3000AC05802FDF91CF911F910F910C949C05C1
:103E4000DF91CF911F910F9108950F939C01CB01AA
:103E5000243F4CE5340731F188F4293DFCE53F0768
:103E6000D9F02A3D4CE5340779F1283D3C45A9F5C8
:103E700006E221EE41EE68ED7CE52BC0263FFCE535
:103E80003F07E1F0A8F0273F3C4539F507E225EE72
:103E900046EE67EF7CE51DC007E225EE45EE69EDD5
:103EA0007CE517C006E221EE40EE64EF7CE511C030
:103EB00007E225EE44EE65EF7CE50BC006E221EE5D
:103EC00042EE66EF7CE505C008E221E045EE6AEDD2
:103ED0007CE50E94B21E80E008C0FC01828188233C
:103EE00019F01092900201C081E00F910895CF93D4
:103EF000DF93EC01FB018281882309F426C1C430E1
:103F0000FDE5DF0760F4CB3F9CE5D90768F49E012F
:103F100022503C452431310508F018C105C0C23695
:103F2000EDE5DE0709F012C10E94E80E9093A802A9
:103F30008093A702C031FCE5DF0709F4CAC008F08E
:103F400041C0C8309CE5D90709F4A4C0F0F4C430DE
:103F5000FCE5DF0709F48CC068F4C2309CE5D907A2
:103F600009F482C0C330DC4509F0E5C08091A702A6
:103F70008260DFC0C630FCE5DF0709F483C008F0CB
:103F800085C08091A7028860D4C0CC309CE5D90759
:103F900009F490C068F4CA30FCE5DF0709F47EC07C
:103FA00008F084C00E9432088091A7028068C1C0D6
:103FB000CE309CE5D90709F481C008F086C0809115
:103FC000A70294C0CD3FFCE5DF0709F47BC038F5BC
:103FD000C4319CE5D90709F49AC058F4C231FCE514
:103FE000DF0709F47AC008F07EC08091A7028F7BBA
:103FF000A0C0CB3F9CE5D907F1F108F03FC0C53127
:10400000DC4509F098C08091A70282FB222720F9A5
:1040100091E0922790FB82F990FB83F98AC0C1302E
:104020008DE5D80709F467C050F48091A802CF3F0E
:10403000ECE5DE07C1F108F05BC08D7F65C0C330E1
:104040008DE5D80709F471C008F46DC0C236DD45AE
:1040500009F071C08091A70284FB222720F991E02A
:10406000922790FB84F965C08091A702816061C0AE
:104070008091A70216C08091A80216C08091A80264
:10408000826042C08091A702806153C08091A702E4
:1040900080624FC08091A70280644BC08091A702CC
:1040A0008860846046C0826081602EC08091A702D3
:1040B0008E7F3FC08091A7028D7F3BC08091A70279
:1040C000877F37C08091A80214C08091A7028F7E9D
:1040D00030C08091A7028F7D2CC00E943208809151
:1040E000A7028F7726C08091A702877F8B7F21C090
:1040F0008D7F8E7F09C08091A802982F9095917036
:104100008E7F892B90FB81F98093A80214C00E94B6
:1041100032088091A70287FB222720F991E092279D
:1041200090FB87F906C081E001C080E00E947F0F0C
:1041300002C08093A7028091A7029091A8020E94DA
:10414000F90E0E94320880E001C081E0DF91CF913A
:104150000895CF93DF9386319C4541F5EB010E9492
:10416000160E982F8A812091000130910101882339
:1041700079F09A7A81E009F480E0809391029111BC
:1041800002C069E201C065E3C9010E9499230AC027
:1041900080919102811102C069E201C065E3C90109
:1041A0000E949B230E94680E80E001C081E0DF91A5
:1041B000CF9108958EE1489B02C08150E1F7489B62
:1041C000FECF0895589880E28A95F1F7589A08959D
:1041D000FC012AE02A95F1F728E090E080E031E048
:1041E00040E14A95F1F7880F489B02C08160932710
:1041F00000C0000040E14A95F1F7215089F720E125
:104200002A95F1F729B100C0000030E13A95F1F7A5
:10421000217092272081920F90830895EF92FF9250
:104220000F931F93CF93DF931F92CDB7DEB7198201
:104230008C017C01E60EF11C0E151F0551F00E9449
:10424000DA20CE0101960E94E820F80181938F01C7
:10425000F3CF81E09981911180E00F90DF91CF91B0
:104260001F910F91FF90EF900895509A589A0895DA
:104270005098589AE89AE9E6F0E080818C7F808334
:104280000895615091E001C0990F6A95EAF720E026
:1042900031E0992361F0492F482319F0589A2327D8
:1042A00001C0589840E24A95F1F79695F2CF222343
:1042B00011F0589A01C0589880E28A95F1F7589801
:1042C0000895FF920F931F93CF93DF93EC018C011E
:1042D000060F111DC017D10741F0F9900E94E2208E
:1042E00068E08F2D0E944121F5CFDF91CF911F9182
:1042F0000F91FF9008951F920F920FB60F92112405
:10430000EF92FF920F931F932F933F934F935F93DF
:104310006F937F938F939F93AF93BF93EF93FF938D
:10432000CF93DF931F92CDB7DEB719820E94DA20B8
:10433000CE0101960E94E820A82FA695A695A695E5
:104340009A2F969595702A2F2570920F292F2370FA
:1043500096959695920F877089137CC089818111FB
:1043600079C0A53008F076C080E18A95F1F7589AB7
:10437000509AB2E0BA95F1F700C05898EA2EF12CA5
:10438000EAE0AE9FD0011124AD5FBE4F1896ED91CB
:10439000FC9119973097B1F06091B6017091B70117
:1043A00016962D913C911797260F371F13968D91D6
:1043B0009C911497680F791F15964C91159712963A
:1043C0008C9109958AE08E9DF0018F9DF00D11244E
:1043D000ED5FFE4F6581662351F08091B6019091AB
:1043E000B70126813781820F931F0E9461210E94AD
:1043F000E220F0E1FA95F1F758985098589A80E148
:104400008A95F1F78AE08E9D80018F9D100D112411
:104410000D5F1E4FD80112966C911297662399F08A
:104420008091B6019091B70113962D913C9114970C
:10443000820F931F0E940E21D801ED91FC918111F2
:1044400005C082E004C0D801ED91FC9188E0808332
:104450000E94DA200F90DF91CF91FF91EF91BF91F1
:10446000AF919F918F917F916F915F914F913F910C
:104470002F911F910F91FF90EF900F900FBE0F9013
:104480001F9018950F931F93CF93DF93853091055D
:104490000CF0A9C02AE0289FF001299FF00D1124FB
:1044A000ED5FFE4F20813181232B09F49CC0EC018C
:1044B000F894509A589885E08A95F1F700008C2F6F
:1044C000869585709C2F9570890F982F937086958F
:1044D00086958E0123E0000F111F2A95E1F7890FC1
:1044E000082B0E94E220A4E0AA95F1F700C068E042
:1044F000802F0E944121B0E1BA95F1F75098589A67
:10450000489902C000C0FCCF87E090E0489B17C0EC
:10451000019799F4509A589A8AE08C9FF0018D9FE8
:10452000F00D1124ED5FFE4F0190F081E02D81E050
:104530008083789481E090E058C000C0E7CF8AE0A3
:104540008C9F80018D9F100D11240D5F1E4FF8016F
:1045500065816623B9F08091B6019091B7012681FB
:104560003781820F931F0E940E2181110BC0509A38
:10457000589AD801ED91FC9182E08083789482E092
:1045800090E033C00E94DA20B0E2BA95F1F7589873
:10459000509AE0E1EA95F1F78AE08C9FF0018D9F57
:1045A000F00D1124ED5FFE4F6281662351F0809182
:1045B000B6019091B70123813481820F931F0E942D
:1045C00061210E94E2208AE08C9FF0018D9FF00D16
:1045D0001124ED5FFE4F0190F081E02D1082789460
:1045E00080E090E002C084E090E0DF91CF911F91E5
:1045F0000F910895909398028093970208950E94D6
:104600006414811103C0809192020895E091970291
:10461000F0919802309721F00190F081E02D0994FB
:1046200080E00895E0919702F0919802309721F090
:104630000280F381E02D09940895E0919702F091B2
:104640009802309739F022E0DC012C930480F58148
:10465000E02D099408952091950230919602281733
:10466000390771F09093960280939502E09197023A
:10467000F0919802309721F00680F781E02D09949F
:10468000089520919302309194022817390771F010
:104690009093940280939302E0919702F091980294
:1046A000309721F00084F185E02D09940895FC01F4
:1046B000329697E080E0915029F021912223D9F39E
:1046C0008F5FF9CF0895662349F0FC013296089672
:1046D0002191621729F0E817F907D1F780E00895D2
:1046E00081E008959C01FC0132969FEF80E04191AA
:1046F000461789F09F3F19F4411101C0982F8F5F31
:104700008630A9F79F3F39F0F901E90FF11D97FDB8
:10471000FA956283089508959C012A5F3F4FFC013A
:104720004281461301C01282019682179307B9F79E
:1047300008950C9472230C948C23029626E0FC01BD
:1047400011922A95E9F708951092EF021092F00263
:104750001092F1021092F2020895CF92DF92EF923E
:10476000FF926B017C010E94641481110EC00E94B3
:104770007924C61AD70AE80AF90AC092EF02D09241
:10478000F002E092F102F092F202FF90EF90DF90DF
:10479000CF9008950F931F930E946414882321F0F3
:1047A0001F910F910C9479240E9479240091EF02BB
:1047B0001091F0022091F1023091F202600F711F0E
:1047C000821F931F1F910F910895089508950C94CF
:1047D000E6230C94E623CF930E94E9230E94D91389
:1047E0000E94E723C0E08C2F0E94A312811104C015
:1047F000CF5FCA30C1F701C081E0CF9108950C941A
:10480000E6230C94FF238091FB02843049F10E943F
:10481000012480E00E9415041092990220E488E1AE
:1048200090E00FB6F894A895809360000FBE209397
:10483000600083B7817F846083BF83B7816083BF5B
:104840007894889583B78E7F83BF0FB6F894A89528
:1048500080916000886180936000109260000FBEBC
:1048600008950C94E6230E9432080E94FF220E94C1
:1048700015040C9431241F920F920FB60F9211243D
:104880008F939F93AF93BF9380919902811113C02F
:104890008091F3029091F402A091F502B091F6029A
:1048A0004196A11DB11D8093F3029093F402A09351
:1048B000F502B093F602BF91AF919F918F910F9047
:1048C0000FBE0F901F90189582E084BD93E095BDB8
:1048D0009AEF97BD80936E0008952FB7F89480915A
:1048E000F3029091F402A091F502B091F6022FBF6D
:1048F00008952FB7F8946091F3027091F4028091BB
:10490000F5029091F6022FBF08959C014FB7F894DD
:104910008091F3029091F402A091F502B091F60219
:104920004FBF821B930B0895CF92DF92EF92FF92BD
:104930002FB7F894C090F302D090F402E090F50203
:10494000F090F6022FBFA7019601261B370B480BEC
:10495000590BCA01B901FF90EF90DF90CF900895F5
:1049600078941F920F920FB60F9211248F939F93FA
:10497000AF93BF938091F3029091F402A091F5025E
:10498000B091F6020196A11DB11D8093F3029093A0
:10499000F402A093F502B093F602BF91AF919F91FC
:1049A0008F910F900FBE0F901F90189587E797E794
:1049B00090930108809300089AE088E10FB6F8947C
:1049C000A895809360000FBE90936000FFCF9093F6
:1049D000BB018093BA0108958091A502089590913A
:1049E000FB02943031F580939A0270939C0260939D
:1049F0009B0282E08093E9008FEF9091E800815064
:104A000095FD06C095ED9A95F1F700008111F5CF5F
:104A10008091E80085FF0DC040E050E063E070E069
:104A20008AE992E00E94FF268091E8008E778093C9
:104A3000E8000895BC0184E00C94EF24BC0183E0FD
:104A40000C94EF2422E02093E9002FEF3091E8004E
:104A5000215035FD06C035ED3A95F1F700002111E2
:104A6000F5CF2091E80025FF0BC040E050E066E064
:104A700070E00E94FF268091E8008E778093E80026
:104A80000895CF93DF9321E02093E9002FEF309139
:104A9000E800215035FD06C035ED3A95F1F70000EC
:104AA0002111F5CF2091E80025FF14C0EC0140E072
:104AB00050E068E070E00E94FF268091E8008E7769
:104AC0008093E80088E0FE01ADE9B2E001900D922C
:104AD0008A95E1F7DF91CF9108958091FA028111D3
:104AE00009C00E9490280E94ED288091E200846015
:104AF0008093E20008951092FA02089508950895AF
:104B0000089542E061EC81E00E94092842E261ECF4
:104B100082E00C9409288091FD02833009F460C082
:104B200030F4813071F0823009F499C008958A30F0
:104B300009F485C08B3009F46BC0893009F0A7C037
:104B400020C08091FC02813A09F0A1C08091E80068
:104B5000877F8093E8008091000390910103892B67
:104B600021F468E08DE992E003C060E080E090E02D
:104B700070E00E944A278091E8008B778093E800DC
:104B800008958091FC02813209F081C08091000378
:104B900090910103029708F07AC08091E800877F26
:104BA0008093E8008091E80082FD05C08091FB02BF
:104BB0008111F8CF6CC02091F3008091F20090E059
:104BC000922B029729F48091F1008B7F813021F4A0
:104BD0008091F1008093A5028091E8008B7753C00B
:104BE0008091FC02813A09F052C0809100039091BB
:104BF0000103892B09F04BC08091E800877F8093E7
:104C0000E8008091E80080FFFCCF8091420136C02F
:104C10008091FC028132D9F58091000390910103CB
:104C2000892BA9F58091E800877F8093E8000E9496
:104C30003E288091FE02809342010C9432088091BC
:104C4000FC02813221F58091E800877F8093E800A3
:104C50000E943E288091FF028093A60208958091D1
:104C6000FC02813AA1F48091E800877F8093E800FC
:104C70008091E80080FFFCCF8091A6028093F10034
:104C80008091E8008E778093E8000C943E28089588
:104C900084B7877F84BF0FB6F894A8958091600091
:104CA000886180936000109260000FBE90E080E801
:104CB0000FB6F89480936100909361000FBE0C943E
:104CC000AD0F0E9490280E94ED28E2EEF0E0808176
:104CD0008460808378940E94822B0E94BB0F88E3BB
:104CE00091E00C94FA228091FB028530A9F4809126
:104CF000FB02853079F40E9403248091F902882315
:104D0000B1F30E94EB23882391F30E94E9260E94CD
:104D10003208EDCF0E9433240C94C70F0C949026D8
:104D2000292F332723303105C9F060F421303105B4
:104D300081F02230310509F044C08BE390E02AEF86
:104D400034E043C021323105E1F02232310549F12E
:104D500038C082E190E025E335E037C09927813003
:104D6000910549F028F0029761F5E8EBF4E005C001
:104D7000E6EFF4E002C0E0EEF4E0849190E09F0101
:104D800024C06115710541F061307105D1F489E0ED
:104D900090E025E235E019C089E090E02CE035E0B4
:104DA00014C06115710541F06130710551F48BE754
:104DB00090E027E435E009C080E490E022EC35E0A3
:104DC00004C080E090E020E030E0FA0131832083ED
:104DD000089580E189BD82E189BD09B400FEFDCF5F
:104DE0008091D8008F7D8093D8008091E000826010
:104DF0008093E0008091E00081FDFCCF0895CF9288
:104E0000DF92EF92FF920F931F93CF93DF93EC010A
:104E10008B017A010E945D28811133C0E114F104F5
:104E200039F0F70180819181081B190BC80FD91F38
:104E3000C12CD12C0115110519F18091E80085FDD7
:104E400016C08091E8008E778093E800E114F104A9
:104E500049F0F70180819181C80ED91ED182C082AC
:104E600085E00FC00E945D28882321F30AC0899144
:104E70008093F10001501109FFEFCF1ADF0ADACF5A
:104E800080E0DF91CF911F910F91FF90EF90DF9025
:104E9000CF9008952091020330910303261737071E
:104EA00048F06115710539F42091E8002E772093C0
:104EB000E80001C0B901FC0120E06115710579F13C
:104EC0008091FB028823F1F18530F1F18091E800B7
:104ED00083FD3CC08091E80082FD2EC08091E800F7
:104EE00080FFEBCF2091F3008091F20090E0922BB5
:104EF0006115710551F08830910538F421912093A6
:104F0000F100615071090196F3CF21E0089709F093
:104F100020E08091E8008E778093E800CECF2111C9
:104F2000CFCF0AC08091FB02882361F0853061F009
:104F30008091E80083FD0AC08091E80082FFF2CFF3
:104F400080E0089582E0089583E0089581E0089567
:104F500020910203309103032617370748F06115AB
:104F6000710539F42091E8002E772093E80001C004
:104F7000B901FC0120E06115710591F18091FB02FE
:104F8000882309F440C0853009F43FC08091E800CF
:104F900083FD3DC08091E80082FD2FC08091E80034
:104FA00080FFE9CF2091F3008091F20090E0922BF6
:104FB0006115710559F08830910540F424912093D2
:104FC000F1003196615071090196F2CF21E0089706
:104FD00009F020E08091E8008E778093E800CBCF45
:104FE0002111CCCF0AC08091FB02882361F085306B
:104FF00061F08091E80083FD0AC08091E80082FFA3
:10500000F2CF80E0089582E0089583E0089581E082
:105010000895982F973068F59093E900981739F024
:105020007091EC002091ED005091F00003C0242F0E
:10503000762F50E021FD02C09F5FECCF3091EB0056
:105040003E7F3093EB003091ED003D7F3093ED00DB
:105050003091EB0031603093EB007093EC002093C3
:10506000ED005093F0002091EE0027FDE5CF80E0A9
:1050700008958F708093E90081E008958091FC028B
:1050800087FF11C08091E80082FD05C08091FB027E
:105090008111F8CF11C08091E8008B770BC080910F
:1050A000FB02882349F08091E80080FFF8CF8091CF
:1050B000E8008E778093E80008952091E400309115
:1050C000E50095E64091EC00842F817040FF23C0FD
:1050D0008091E80080FD1DC08091FB02882399F03B
:1050E000853099F08091EB0085FD11C04091E4007E
:1050F0005091E5002417350729F3915011F09A01DA
:10510000E1CF84E0089582E0089583E0089581E08E
:10511000089580E008954091E80042FFDDCF0895B2
:105120000E94FE280E940629E0EEF0E08081816066
:105130008083E8EDF0E080818F77808319BCA7ED54
:10514000B0E08C918E7F8C9380818F7E80831092D3
:10515000FA0208950F931F93CF93DF930E94FE28C6
:105160000E940629C8EDD0E088818F7788838881E6
:105170008068888388818F7D888319BC1092FB02A8
:105180001092F7021092F9021092F80200EE10E06D
:10519000F80180818B7F808388818160888342E0F1
:1051A00060E080E00E940928E1EEF0E080818E7FDF
:1051B0008083E2EEF0E0808181608083808188607E
:1051C0008083F80180818E7F8083888180618883DD
:1051D000DF91CF911F910F910895E8EDF0E080816C
:1051E0008F7E8083E7EDF0E080818160808384E0C2
:1051F00082BF81E08093FA020C94AA28E8EDF0E0E7
:1052000080818E7F80831092E20008951092DA00F0
:105210001092E10008951F920F920FB60F92112481
:105220002F933F934F935F936F937F938F939F93AE
:10523000AF93BF93EF93FF938091E10082FF0BC088
:105240008091E20082FF07C08091E1008B7F809314
:10525000E1000E94812B8091DA0080FF1FC08091C5
:10526000D80080FF1BC08091DA008E7F8093DA0027
:105270008091D90080FF0DC080E189BD82E189BDA8
:1052800009B400FEFDCF81E08093FB020E946D25F2
:1052900005C019BC1092FB020E947B258091E100A1
:1052A00080FF19C08091E20080FF15C08091E2006C
:1052B0008E7F8093E2008091E20080618093E20023
:1052C0008091D80080628093D80019BC85E08093DB
:1052D000FB020E947F258091E10084FF30C0809115
:1052E000E20084FF2CC080E189BD82E189BD09B460
:1052F00000FEFDCF8091D8008F7D8093D8008091F3
:10530000E1008F7E8093E1008091E2008F7E8093A8
:10531000E2008091E20081608093E2008091F702D8
:10532000882311F084E007C08091E30087FD02C06C
:1053300081E001C083E08093FB020E948025809180
:10534000E10083FF29C08091E20083FF25C08091A6
:10535000E100877F8093E10082E08093FB0210925E
:10536000F7028091E1008E7F8093E1008091E2005E
:105370008E7F8093E2008091E20080618093E20062
:1053800042E060E080E00E9409288091F00088609F
:105390008093F0000E947E25FF91EF91BF91AF9125
:1053A0009F918F917F916F915F914F913F912F913D
:1053B0000F900FBE0F901F9018951F920F920FB66F
:1053C0000F9211242F933F934F935F936F937F938B
:1053D0008F939F93AF93BF93CF93DF93EF93FF93FD
:1053E000C091E900CF708091EC00D82FD17080FD82
:1053F000D0E81092E9008091F000877F8093F00060
:1054000078940E94212A1092E9008091F00088602F
:105410008093F000CD2BCF70C093E900FF91EF9106
:10542000DF91CF91BF91AF919F918F917F916F91BC
:105430005F914F913F912F910F900FBE0F901F9052
:1054400018951F93CF93DF93CDB7DEB7AA970FB60A
:10545000F894DEBF0FBECDBFECEFF2E08091F1001B
:10546000819323E0E430F207C9F70E948B258091F5
:10547000E80083FF2EC18091FC029091FD02492F2C
:1054800050E04A30510508F024C1FA01EC58FF4FB2
:105490000C94D72B803821F0823809F01AC108C04B
:1054A0008091F8029091F902992389F082600FC0EF
:1054B000809100038F70873008F00BC18093E90062
:1054C0008091EB0085FB882780F91092E90090918C
:1054D000E800977F9093E8008093F1001092F1002C
:1054E000D1C0282F2D7F09F0F4C0882319F0823015
:1054F00061F0EFC08091FE02813009F0EAC0933084
:1055000009F080E08093F9022EC08091FE028111A3
:105510002AC0809100038F702FEF280F263008F0EB
:10552000D8C08093E9002091EB0020FF1CC093308D
:1055300021F48091EB00806214C09091EB009061A7
:105540009093EB0021E030E0A90102C0440F551F09
:105550008A95E2F74093EA001092EA008091EB000E
:1055600088608093EB001092E9008091E800877FCB
:105570008093E8000E943E28ACC08111AAC010911F
:10558000FE021F778091E3008078812B8093E300F7
:105590008091E800877F8093E8000E943E288091F8
:1055A000E80080FFFCCF8091E30080688093E300F7
:1055B000111102C082E001C083E08093FB0289C028
:1055C0008058823008F085C08091FE029091FF02E1
:1055D0008C3D53E0950779F583E08A838AE28983DD
:1055E0004FB7F894DE01139620E03EE051E2E32F3E
:1055F000F0E050935700E49120FF03C0E295EF7074
:105600003F5FEF708E2F90E0EA3010F0C79601C038
:10561000C0968D939D932F5F243149F74FBF8091A2
:10562000E800877F8093E8006AE270E0CE0101968F
:105630000E944A2716C06091000370910103AE01D9
:105640004F5F5F4F0E948E26BC01892B09F441C039
:105650009091E800977F9093E80089819A810E9459
:10566000A8278091E8008B778093E80032C08038CB
:1056700081F58091E800877F8093E8008091F702B0
:105680008093F1008091E8008E7772CF811121C064
:105690008091FE029091FF0299270297D4F48091A5
:1056A000E800877F8093E8008091FE028093F702F4
:1056B0000E943E288091F702811106C08091E3008C
:1056C00087FD02C081E001C084E08093FB020E945C
:1056D00081258091E80083FF0AC08091E800877FE0
:1056E0008093E8008091EB0080628093EB00AA96A3
:1056F0000FB6F894DEBF0FBECDBFDF91CF911F91E3
:1057000008950895CF938091FB028823A1F0C09162
:10571000E900CF709091EC00892F817090FD80E8B6
:10572000C82B1092E9008091E80083FD0E94212A95
:10573000CF70C093E900CF9108950E9490281092F5
:10574000FB020895E8EDF0E08081806180838AE1CA
:105750008A95F1F700C08091D90081700895AA1B45
:10576000BB1B51E107C0AA1FBB1FA617B70710F04C
:10577000A61BB70B881F991F5A95A9F7809590957E
:10578000BC01CD01089597FB072E16F4009407D0B5
:1057900077FD09D00E94AF2B07FC05D03EF4909511
:1057A00081959F4F0895709561957F4F0895EE0FF5
:1057B000FF1F0590F491E02D0994FB01DC0104C06A
:1057C0008D910190801921F441505040C8F7881BF9
:1057D000990B0895FB01DC0102C001900D9241502C
:1057E0005040D8F70895F999FECF92BD81BDF89A3F
:1057F000992780B50895A6E1B0E044E050E00C940C
:105800002D2CA8E1B0E042E050E00C942D2C262F86
:10581000F999FECF92BD81BDF89A019700B40216A6
:1058200039F01FBA20BD0FB6F894FA9AF99A0FBE54
:1058300008950396272F0E94082C0E94072C252FDD
:105840000E94082C242F0C94082C0196272F0E94CC
:10585000082C0C94072CDC01CB01FC01F999FECF3C
:1058600006C0F2BDE1BDF89A319600B40D924150E8
:0A5870005040B8F70895F894FFCFF8
:10587A002C0201BF020000000100000000BF02006C
:10588A0000000501000000BF02040600000000003D
:10589A0000BF02080A0000000000002808641E1465
:1058AA000A321E000E000E0EEC24412522251E256A
:1058BA001A2501E200E900EA00B500B600B700CDFA
:1058CA00008301CC008A019201940121022302245F
:1058DA00022502260227022A02B300B4006F0070D2
:1058EA0000818283E200E900EA00B500B600B70051
:1058FA00CD008301CC008A01920194012102230286
:10590A0024022502260227022A02B300B4006F00ED
:10591A007000818283F5F6F7313332369497C634B4
:0A592A0035000000000052020001E9
:00000001FF
