:100000000C9447030C946B220C948E030C948E0377
:100010000C948E030C948E030C948E030C948E031C
:100020000C948E030C948E030C94E0290C94B22A49
:100030000C94FA240C948E030C948E030C948E036F
:100040000C948E030C948E030C948E030C948E03EC
:100050000C948E030C946F250C948E030C948E03D9
:100060000C948E030C948E030C948E030C948E03CC
:100070000C948E030C948E030C948E030C948E03BC
:100080000C948E030C948E030C948E030C948E03AC
:100090000C948E030C948E030C948E030C948E039C
:1000A0000C948E030C948E030C948E03430643062B
:1000B0006F066F06D706F5061A081A080007950797
:1000C000A607A6070A081A081A081308BE08BE08D9
:1000D000D008D008C708D008D008D008BE08BE088D
:1000E000CC08D008D008CC081F2B462B3E2C462B22
:1000F0003E2C922BB52B3E2C0C2C1B2C35421E007B
:100100001F0020002100220001512B0014001A00C2
:100110000800150017002F00290004001600070032
:1001200009000A004B43E6001D001B0006001900F1
:1001300005004E00E30057005600556431612A0067
:100140004C002D42270026002500240023000151E9
:100150002E00130012000C0018001C0030003400A8
:1001600033000F000E000D000B004D43E50038007A
:1001700037003600100011004A004F0052005100B5
:100180005000E1002C00280001003A003B003C0038
:100190003D003E00010001001E021F022F0230023E
:1001A000310214500100200221022F0030003500DE
:1001B000010001002202230226022702350201006B
:1001C0000100010001000100010001000100000028
:1001D00043004200410040003F0001000000560083
:1001E000610060005F0054001550000057005E0081
:1001F0005D005C0055000100000058005B005A00E3
:100200005900000001000000580063006200620015
:1002100001000100010001000100010001000100D6
:10022000010000000000ED000000F90000000100E6
:100230000000EF00EE00F000FA00000001000000F6
:1002400000000000000000000000010000000000AD
:1002500000000000F100F2000100010001000100B7
:10026000010001000100010000000000000000008A
:10027000000000000100000000004F00520051008B
:10028000500000000000000000000000000000001E
:10029000010000000000000000000000010001005B
:1002A00000003A003B003C003D003E00C65C000000
:1002B000005CCE5CC35CC45CC75C01000000000055
:1002C000000000000000000001000000000000002D
:1002D000000000000000000000000000000000001E
:1002E0000000000000000000430042004100400008
:1002F0003F00C95C000000000000CA5CCB5CC85C29
:1003000000000000000000000000000000000100EC
:1003100000000000000000000000000000000000DD
:1003200000000000000000000000000035001E007A
:100330001F0020002100220000002B0014001A00E2
:10034000080015001700010029000400160007002E
:1003500009000A001000E1001D001B000600190042
:1003600005000C00000057005600E200E0002C00E1
:1003700028002D002700260025002400230001511D
:100380002E00130012000C0018001C003000340076
:1003900033000F000E000D000B000000E5003800D8
:1003A000370036001000110000004F0052005100CD
:1003B000500010502A004C0035001E001F00200085
:1003C0002100220010502B000D0006001C00090027
:1003D0000E002F0029001500160017000B00070063
:1003E0004B00E600000019000A00130005004C0055
:1003F000E300570056005504310108002A002D0083
:100400002700260025002400230001512E0014009F
:10041000180033000F001D000100340012000C0012
:100420000400110010004D00E500380037003600D0
:100430001A001B004A004F00520051005000E1001A
:100440002C0028000001010101010101010102024B
:100450000202020202020203030303030303030472
:10046000040404040404050505050506060606063D
:10047000070707070708080808090909090A0A0AF7
:100480000B0B0B0C0C0C0D0D0D0E0E0E0F0F0F1099
:100490001011111112121313141415151616171723
:1004A000181819191A1A1B1B1C1D1D1E1E1F20208F
:1004B000212222232424252626272829292A2B2CD9
:1004C0002D2D2E2F30313232333435363738393AFC
:1004D0003B3C3D3E3F404142434445464748494AF4
:1004E0004C4D4E4F50515354555658595A5B5D5EC2
:1004F0005F616264656668696B6C6D6F707273755D
:1005000077787A7B7D7E8082838587888A8C8E8FC0
:1005100091939596989A9C9EA0A2A3A5A7A9ABADEE
:10052000AFB1B3B5B7BABCBEC0C2C4C6C9CBCDCFDC
:10053000D1D4D6D8DBDDDFE2E4E7E9EBEEF0F3F58A
:10054000F8FAFDFF26035400680065002000520001
:10055000650064006F00780020004B0065007900A2
:1005600062006F0061007200640000001403460026
:1005700061006C0062006100740065006300680047
:1005800000000403090409023B00020100A0FA096B
:1005900004000001030101000921110100012240B2
:1005A000000705810308000A090401000103000097
:1005B00000092111010001227B00070582032000B0
:1005C0000A1201000200000008444D4452000101DB
:1005D00002000105010902A10185020901A100052E
:1005E00009190129081500250195087501810205E1
:1005F00001093009311581257F95027508810609A9
:10060000381581257F950175088106050C0A380289
:100610001581257F950175088106C0C005010980F7
:10062000A101850319012AB700150126B70095011C
:1006300075108100C0050C0901A101850419012A6A
:10064000A002150126A002950175108100C00501C8
:100650000906A101050719E029E7150025019508FC
:10066000750181029501750881010507190029FFAF
:10067000150026FF00950675088100050819012957
:1006800005950575019102950175039101C011242D
:100690001FBECFEFDAE0DEBFCDBF04B603FE27C03A
:1006A00080910A0390910B03A0910C03B0910D036C
:1006B0008730904BA740B04BD1F410920A031092B0
:1006C0000B0310920C0310920D0314BE84B7877FA6
:1006D00084BF0FB6F894A8958091600088618093DC
:1006E0006000109260000FBEE0E0F8E3099511E0B1
:1006F000A0E0B1E0E4E2FAE502C005900D92AE3B65
:10070000B107D9F723E0AEEBB1E001C01D92AA30EA
:10071000B207E1F70E94E2170C94102D0C94000030
:1007200081E0089581E008950C94920308950C945B
:1007300096031F93CF93DF9300D000D01F92CDB7C5
:10074000DEB749835A836B833091C00189819A81D6
:10075000311114C0662359F0222349F00E94620A25
:10076000182F682F89819A810E940B0A03C00E946A
:10077000360A182F69817A81812F04C00E94620A8B
:1007800069817A810F900F900F900F900F90DF91F9
:10079000CF911F910C94FC10FC01262F40815181B8
:1007A0006281738184810C94990381E00895CF93D1
:1007B000DF93EC0160E00E94CC03BE01DF91CF919A
:1007C0000C9497030E9453130E946D040C948D1394
:1007D0000C94891308950C94EA030C94EB030E9483
:1007E000ED0380E00C946E040C94EA030E94AC08C4
:1007F0000E94F4032FEF84E39CE02150804090405E
:10080000E1F700C000000C9495250F931F93CF9340
:10081000DF938C0161E00E94CC03EC01B8010E94DF
:100820009403882309F444C0B801CE010E947821C2
:100830008823F1F1B801CE010E942B1E8823C1F15B
:10084000B801CE010E94D420882391F1B801CE01D5
:100850000E94711D882361F1F8018281882309F1CA
:10086000CB358DE5D807C1F050F4C115FCE5DF07A5
:1008700081F0CF3DDC45A9F40E94101019C0CC35A1
:10088000EDE5DE0761F0CD35DD4559F40E94590FE5
:1008900008C00E94F6030CC00E94620F02C00E94B2
:1008A000650FC801DF91CF911F910F910C949003B8
:1008B00080E0DF91CF911F910F9108950C94EA038E
:1008C0000E94F4230E946E040C945E0408950C941C
:1008D000660481E008950C9469040895CF93C82FAD
:1008E0000E9467048C2F0E946B04CF910895CF93D0
:1008F000DF93CDB7DEB72B970FB6F894DEBF0FBEF0
:10090000CDBF4F83588769877A878B8761110E9493
:10091000A50E9E012F5F3F4F86E0F90111928A9547
:10092000E9F785E0FE013796D90101900D928A958D
:10093000E1F789819A814C815D81452B31F09F3FA0
:1009400031F491E08F3F19F403C091E001C090E0D1
:1009500090FF09C049815A816B817C818D819E8184
:100960000E94C60D05C0C9010E94D5038111F2CFB6
:100970002B960FB6F894DEBF0FBECDBFDF91CF919F
:100980000895FC01808191810E94A40A0895CF936B
:10099000882309F4A9C0C82F8238C1F40E94F42327
:1009A00081FDA2C069E380910201909103010E9440
:1009B0008E240E94D70E2FEF81EE94E021508040CC
:1009C0009040E1F700C0000069E319C0833801F5E9
:1009D0000E94F42380FD88C063E58091020190911C
:1009E00003010E948E240E94D70E2FEF81EE94E027
:1009F000215080409040E1F700C0000063E5809105
:100A00000201909103010E949024CF910C94D70E83
:100A10008438C1F40E94F42382FD66C067E48091AB
:100A20000201909103010E948E240E94D70E2FEFA5
:100A300081EE94E0215080409040E1F700C000003A
:100A400067E4DDCF8CEF8C0F813AF8F48C2F0E9495
:100A50008B20811149C06C2F80910201909103017C
:100A60000E945824882349F06C2F809102019091B4
:100A700003010E9490240E94D70E6C2F80910201E6
:100A8000909103010E948E24C0CF80E28C0F8830A9
:100A900048F4C77081E001C0880FCA95EAF70E9448
:100AA000880EB3CFEBE5EC0FE33040F4F0E0EB5809
:100AB000FE4F808190E0CF910C942024E8E5EC0F6C
:100AC000E73150F4F0E0EE0FFF1FE95BFE4F80814D
:100AD0009181CF910C943624CD3E30F08C2F0E9422
:100AE0007118CF910C944319CF910895882309F47C
:100AF00064C0823879F40E94F42381FF5EC069E308
:100B000080910201909103010E948E240E94D70ED1
:100B100069E310C08338B1F40E94F42380FF4DC014
:100B200063E580910201909103010E948E240E944E
:100B3000D70E63E580910201909103010E949024F9
:100B40000C94D70E843879F40E94F42382FF35C0C8
:100B500067E480910201909103010E948E240E941B
:100B6000D70E67E4E7CF9CEF980F913A10F4682F07
:100B7000E1CF90E2980F983050F4877091E001C077
:100B8000990F8A95EAF7892F0E948E0ED9CF9BE59F
:100B9000980F933020F480E090E00C94202498E5A6
:100BA000980F973120F480E090E00C9436248D3E2D
:100BB00020F00E94CC180C94431908951F93CF93F2
:100BC000DF93182FEB010E94C704209741F08FE9B3
:100BD0009FE00197F1F700C000002197F6CF812F29
:100BE000DF91CF911F910C947605893319F060E065
:100BF00070E002C060E570E00C94DE05882321F00F
:100C00000E94880E0C94D70E0895882321F00E942C
:100C10008E0E0C94D70E0895CF92DF92EF92FF9232
:100C20000F931F93CF93DF937C01162FC72FFC01E7
:100C3000D281058102950F700E947E0E8823B9F043
:100C4000DD23A9F08C2F807F803421F080E2810F9A
:100C5000883068F08091B20282FD09C082E00E9473
:100C6000270F0E947E0E91E0D82ED92601C0D12CEC
:100C7000CC2EC2948FE0C8228C2D90E0FC01EA5A61
:100C8000FF4F0C94AC2C8C2F807FCF70882311F0F9
:100C9000C295C07FDD2399F0CC2309F4A6C180E280
:100CA000810F883010F0111104C08C2F0E94880E23
:100CB00003C08C2F0E94980E0E94D70E96C1812FE0
:100CC0000E947605CC2309F4B5C180E2810F8830FB
:100CD00038F1112329F18C2F0E949E0E24C08C2FF5
:100CE000807FCF70803211F0C295C07F112319F040
:100CF0001130A1F13DC08091B20282FF17C0DD2307
:100D000049F0CC2329F08C2F0E94880E0E94D70E28
:100D100080E06CC180E00E947605CC2309F48AC192
:100D20008C2F0E948E0E0E94D70E84C1DD2371F09D
:100D3000002341F0013031F40E94B80E8C2B0E9448
:100D4000C00E78C10E94B80E8C2B1DC0002319F074
:100D5000013009F46FC10E94CD0E25C0DD2321F0C2
:100D6000063008F067C10EC0053008F063C11BC033
:100D7000DD2361F0002331F0F701858180FF35C16B
:100D80008F7085838C2F0E94FE0554C1002359F07B
:100D9000193309F03BC1FFEF27EE83E0F15020400B
:100DA0008040E1F731C18C2F0E94050643C18C2F92
:100DB00086958695837019F0813061F03BC1DD2303
:100DC00021F0812F9C2F937002C080E090E00E9460
:100DD000202438C1DD2321F0812F9C2F937002C085
:100DE00080E090E00E9436242DC1812FDD2319F090
:100DF0000E94711802C00E94CC180E94431922C19F
:100E00008C2F837009F045C0D11118C1412F429534
:100E100046954770440F440F612F6F70862F90E006
:100E2000A0E0B0E0042E04C0880F991FAA1FBB1FCA
:100E30000A94D2F714FF10C00FE010E020E030E079
:100E400004C0000F111F221F331F4A95D2F70095CF
:100E500010952095309503C000E010E09801C695EC
:100E6000C695C370BC01CD01602B712B822B932BD7
:100E7000C23049F058F4C13019F00E942109DEC097
:100E80000E940F09DBC00E943309D8C00E940D09DF
:100E9000D5C0DD2319F08C2F817001C08695882381
:100EA00009F4CCC0412F429546954770440F440F3A
:100EB000612F6F70862F90E0A0E0B0E0042E04C098
:100EC000880F991FAA1FBB1F0A94D2F714FF10C0E6
:100ED0000FE010E020E030E004C0000F111F221FDF
:100EE000331F4A95D2F7009510952095309503C091
:100EF00000E010E09801C695C695C370BC01CD0115
:100F0000602B712B822B932BC23049F058F4C130E7
:100F100019F00E94E60992C00E94D4098FC00E9475
:100F2000F8098CC00E94470989C0CF70DD2339F0D1
:100F30008C2F0E946D09812F0E94FE057FC0812F9A
:100F40000E9405068C2F0E948E0978C0123F21F165
:100F500028F4103F41F0113FC1F043C0133F19F195
:100F6000143F79F03EC0DD2341F0053008F062C047
:100F70008C2F8F710E94B3095DC0063008F05AC0F3
:100F8000F7CF8091B20282FF18C0DD2339F08C2F99
:100F90008F710E946D094EC0DD23C9F38C2F8F71B4
:100FA0000E948E0947C0DD2329F08C2F8F710E948B
:100FB000580940C00E9453093DC0DD2349F0CF715C
:100FC0008C2F0E946D0963E08C2F0E940C0F32C0A1
:100FD00081E00E94270F023068F182E00E94270F13
:100FE00029C0DD2331F0002391F2812F0E94C70434
:100FF00021C0002399F2193349F49FEFE7EEF3E0A3
:101000009150E040F040E1F700C00000812F0E94C5
:10101000760510C04C2F4F70612FC7010E94F81049
:101020000E94D20A0FC04C2F4F70612FC7010E943F
:10103000FB1008C088EF8C0D843020F40E94F4234C
:101040000E946E04DD20C9F00E947A0E80FD15C05A
:10105000F70112820E94740E0E946D09C7010E945E
:101060005E080E94740EDF91CF911F910F91FF9047
:10107000EF90DF90CF900C948E09DF91CF911F916C
:101080000F91FF90EF90DF90CF9008950F931F93F3
:10109000CF93DF93EC01688179818A810E94AF0A46
:1010A0008C010E940A0A0E94FB08B801CE010E942E
:1010B0000C06DF91CF911F910F910895CF93DF938D
:1010C000EC01988189812B813C81232B31F08F3F6A
:1010D00031F481E09F3F19F403C081E001C080E05A
:1010E00080FD1DC0CE010E940504811110C00E9428
:1010F0007E0E8823A1F08A81882389F08091B20234
:1011000082FD0DC082E0DF91CF910C94270FCE01BC
:101110000E944608CE01DF91CF910C94D703DF9156
:10112000CF91089580E090E00E94202480E090E03C
:101130000E9436240E94A50E0E94B50E0E94D70E72
:101140000E94741A0C94431980910201909103013A
:101150000E9492240C9492080E94950E0C94A4086C
:10116000E92FE295EF704E2F50E0FA013297EE3002
:10117000F105B0F4EA59FF4F0C94AC2C803F91F08C
:1011800018F4883E68F40EC0843F51F40BC0883ECA
:1011900048F0813F29F406C093FB882780F9089521
:1011A00080E0089581E00895FC01808191810E9492
:1011B000A40A0E94B0080895CF93DF9300D000D016
:1011C0001F92CDB7DEB70F900F900F900F900F903A
:1011D000DF91CF910895CF93DF9300D000D000D05E
:1011E000CDB7DEB726960FB6F894DEBF0FBECDBFE3
:1011F000DF91CF910895089508950C94FC080C9404
:10120000FD080E94FF086093F2017093F301809340
:10121000F4019093F5010C9492080C9401090F933A
:101220001F930091F2011091F3012091F40130918C
:10123000F501602B712B822B932B1F910F910C9436
:1012400001090F931F930091F2011091F301209176
:10125000F4013091F50160237123822393231F91C0
:101260000F910C9401090F931F930091F2011091BB
:10127000F3012091F4013091F50160277127822755
:1012800093271F910F910C9401090C94FC080E9464
:1012900045096093EE017093EF018093F001909304
:1012A000F1010C94920860E070E0CB010C944709C6
:1012B0000F931F9341E050E060E070E08A019B01D2
:1012C00004C0000F111F221F331F8A95D2F7C901D6
:1012D000B8011F910F910C9447090F931F9341E0A0
:1012E00050E060E070E004C0440F551F661F771F98
:1012F0008A95D2F78091EE019091EF01A091F001D3
:10130000B091F1018A019B01082B192B2A2B3B2B51
:10131000C901B8011F910F910C9447090F931F93B6
:1013200041E050E060E070E004C0440F551F661FCC
:10133000771F8A95D2F7409550956095709580916A
:10134000EE019091EF01A091F001B091F1018A01BD
:101350009B01082319232A233B23C901B8011F91AC
:101360000F910C9447090F931F9341E050E060E008
:1013700070E004C0440F551F661F771F8A95D2F78F
:101380008091EE019091EF01A091F001B091F101F7
:101390008A019B01082719272A273B27C901B80181
:1013A0001F910F910C9447090F931F930091EE0129
:1013B0001091EF012091F0013091F101602B712B20
:1013C000822B932B1F910F910C9447090F931F931E
:1013D0000091EE011091EF012091F0013091F101A7
:1013E00060237123822393231F910F910C9447094B
:1013F0000F931F930091EE011091EF012091F001E6
:101400003091F10160277127822793271F910F9157
:101410000C944709089527E0929F800D1124E82F2E
:10142000E695E695E695877051E001C0550F8A95DF
:10143000EAF785E0E89FF0011124EF53FE4F20E02A
:1014400030E070E04081CB01022E02C09695879576
:101450000A94E2F7817081958427852384278193FC
:101460002F5F3F4F2530310569F7089527E0929FA0
:10147000800D1124682F669566956695982F977054
:1014800085E0689FB001112440E050E080E0FB015E
:10149000E40FF51FEF53FE4F208130E0092E02C00C
:1014A000369527950A94E2F721703327042E01C060
:1014B000220F0A94EAF7822B4F5F5F4F45305105A8
:1014C00031F70895BF92CF92DF92EF92FF920F9380
:1014D0001F93CF93DF938C01C090EE01D090EF016A
:1014E000E090F001F090F1018091F2019091F30110
:1014F000A091F401B091F501C82AD92AEA2AFB2A61
:10150000CFE1D0E0D701C6010C2E04C0B695A79557
:10151000979587950A94D2F780FD04C0219790F79C
:10152000B12C07C0BC2EB8018C2F0E94331201973A
:10153000A9F38B2DDF91CF911F910F91FF90EF9029
:10154000DF90CF90BF900895CF93DF93EC010E947E
:10155000620ABE010E943312DF91CF9108951F935A
:10156000CF93DF93EB019091C001992321F0CB0140
:101570000E94A40A13C0882349F0CB010E94620A8A
:10158000182F682FCE010E940B0A04C0CB010E94C5
:10159000360A182FBE01812F0E943312DF91CF919E
:1015A0001F910895EF92FF920F931F93CF93DF93B4
:1015B0008C01892B09F46CC0F12CEE24E394E80132
:1015C0002196F8018491843740F4843008F051C0AA
:1015D000813081F0823019F15BC0853709F444C055
:1015E000A8F19CE7980F903708F052C08F770E94BF
:1015F000760541C00E5F1F4FFE01849190E2980F67
:10160000983050F48770FE2D01C0FF0F8A95EAF7DD
:101610008F2F0E94A80E14C00E94C7042DC00E5F19
:101620001F4FFE01849190E2980F983060F487700C
:10163000FE2D01C0FF0F8A95EAF78F2F0E94AE0E94
:101640000E94D70E19C00E94760516C00E5F1F4F6C
:10165000FE01C491CC2381F08FE99FE00197F1F75F
:1016600000C00000C150F6CF0E5F1F4FFE01F49086
:1016700003C00E94C7048E018F2D882309F49FCFD9
:10168000EFE9FFE03197F1F700C000008150F5CF9E
:10169000DF91CF911F910F91FF90EF9008951F93CD
:1016A000CF93DF93C091F60116E08091F701C81740
:1016B00099F0D0E01C9FF0011D9FF00D1124E8501F
:1016C000FE4F4081518162817381848195810E94A6
:1016D000EB082196C770E9CFDF91CF911F91089554
:1016E000409128025091290260912A0270912B02A8
:1016F00080912C0290912D020C94EB08EF92FF92B6
:101700000F931F93CF93DF9380912D0282958F705B
:1017100009F065C080912A02882309F460C0809195
:10172000F601F090F70110912802009129026091D2
:101730002B0270912C0291E01F3F09F090E0C091C4
:101740000001D0910101292F96E0E92E8F1509F4AF
:1017500046C06115710521F00F3F21F030E003C054
:1017600031E001C0322F90E030FD36C0E89EF0013C
:10177000E99EF00D1124DF01A850BE4F11963C9157
:101780001197301329C03C91311326C012963C9119
:101790001297311121C013964D915C911497461BFD
:1017A000570B4C175D07C0F480912D028F7080613C
:1017B00080932D02E350FE4F80818F708061808383
:1017C00088E292E00E945E08DF91CF911F910F9115
:1017D000FF90EF900C944F0B01968770B7CFDF917D
:1017E000CF911F910F91FF90EF9008959F92AF922C
:1017F000BF92CF92DF92EF92FF920F931F93CF93FE
:10180000DF93CDB7DEB761970FB6F894DEBF0FBE9A
:10181000CDBF8C0185E0F801DE011D9601900D928F
:101820008A95E1F7D8011296EC9090912802E09108
:10183000290220912B0230912C022115310531F023
:10184000EF3F31F481E09F3F19F403C081E001C014
:1018500080E0B82FB1709B2E80FD47C1D8014C911C
:1018600011965C9111971396AD90BC90149788E2F5
:10187000C82E82E0D82EF0902A02B501621B730BAD
:101880002091000130910101FF2009F4D9C080911D
:101890002D026217730708F095C0282F207F09F0EA
:1018A00052C05E1313C0491311C0FE2CE1100EC0CC
:1018B0008F70806180932D020E94700BC6010E9480
:1018C0005E0880912D02F80185834DC1AB2831F06F
:1018D0005F3F31F481E04F3F19F403C081E001C064
:1018E00080E080FD03C081E08E2502C080E090E0B2
:1018F000F82FF170FF2E80FF1CC08091F60120911F
:10190000F70136E0821709F40BC190E0389FF0012F
:10191000399FF00D1124E850FE4F6181561306C027
:101920006081461303C06281E61203C0019687708E
:10193000E9CFFE2CEE2009F416C180912D028160C2
:1019400080932D0254C05E1306C0491304C0E110F9
:1019500002C0F80199C0C8010E94D408882361F12F
:10196000EE2051F120912D02822F82958F7090E010
:10197000029774F0809128029091290298878F83B2
:101980001986BB86AA862C87CE0107960E945E0820
:1019900086E0F801A8E2B2E001900D928A95E1F7A5
:1019A0000E947E0B0E94700B0AC05E1711F1C801E5
:1019B0000E94D40881112CC0C8010E945E08FF2437
:1019C000F394D1C0282F207F81F77A2DB98AA88A75
:1019D0006E2D89890E94DC0888E292E00E945E08F0
:1019E00086E0D6011D928A95E9F70E94700BF12CD2
:1019F000BAC04913DCCFE110DACFF8018583C80102
:101A00000E945E0886E0D6011D928A95E9F7ABC078
:101A1000EE2091F220912D02822F82958F7090E01E
:101A200002970CF4B5CF80912802909129029A83F5
:101A300089831B82BD82AC822E83CE010196A6CF04
:101A40006217730708F044C0FE2CEE2009F4B4CFEF
:101A50005E1330C049132EC020912D0220FD21C0FD
:101A6000822F82958F70482F50E041155105C9F0A3
:101A7000F80125834F30510541F08F5F982F9295E3
:101A8000907F822F8F70892B8583C8010E945E080A
:101A900086E0F801A8E2B2E001900D928A95E1F7A4
:101AA0003CC086E0F801A8E2B2E001900D928A9570
:101AB000E1F759C0C8010E94D408811169CF809113
:101AC0002D02816080932D02C8010E945E084BC0E8
:101AD0007A2DB98AA88A6E2D89890E94DC0886E051
:101AE000D6011D928A95E9F718C0EE2009F464CF5B
:101AF000C8010E94D408F82E882309F45DCF86E03F
:101B0000F801A8E2B2E001900D928A95E1F788E22F
:101B100092E00E94C1040E947E0B0E94700B23C0C1
:101B20004D875E878D859E850E94A40A292F229568
:101B30002F70223028F49F7039F0811105C00BC03E
:101B4000243028F49F7049F4805E883020F0C8016A
:101B50000E945E089F2CF92C06C0D80115969C9116
:101B6000907F91F7F8CF8F2D61960FB6F894DEBF76
:101B70000FBECDBFDF91CF911F910F91FF90EF90DE
:101B8000DF90CF90BF90AF909F9008951F93CF9319
:101B9000DF93CDB7DEB72C970FB6F894DEBF0FBE3C
:101BA000CDBF4F83588769877A878B879C87CE0103
:101BB00007960E94F60B8823D1F09F8188852A859D
:101BC0003B85232B31F08F3F31F481E09F3F19F4A7
:101BD00003C081E001C080E080FD47C04F8158858F
:101BE00069857A858B859C850E94EB083EC086E0DE
:101BF000FE013796DE01119601900D928A95E1F76C
:101C0000FF81E8856A857B856115710531F0EF3FBD
:101C100031F481E0FF3F19F403C081E001C080E0AE
:101C200080FD23C02091F70130E0C9010196877043
:101C300099274091F60150E084179507F1F1F98357
:101C4000EA837D836C8396E0929FD001939FB00DD1
:101C50001124A850BE4FFE01319601900D929A9525
:101C6000E1F78093F7010E944F0B16E08091F60197
:101C70009091F701891771F1189FC00111248850C4
:101C80009E4F0E94F60B882329F1E091F6011E9FDA
:101C9000F0011124E850FE4F40815181628173812F
:101CA000848195810E94EB088091F60190E0019675
:101CB000877099278093F601D9CF0E94AC081092C3
:101CC000F7011092F601E8E2F2E086E0DF011D92F2
:101CD0008A95E9F72C960FB6F894DEBF0FBECDBFFC
:101CE000DF91CF911F91089580912E028595859562
:101CF0008595089580912E028770089590912E0207
:101D0000977081E009F480E0089580913A02089587
:101D100090913A02892B80933A0208958095909190
:101D20003A02892380933A02089510923A02089564
:101D300090913902892B8093390208958095909172
:101D40003902892380933902089510923902089547
:101D500090913802892B8093380208958095909154
:101D6000380289238093380208951092380208952A
:101D700080912F02089508950C94BB0E0C94BC0E14
:101D80009091B20292FD08C090912F02981721F015
:101D900080932F020C94BE0E089580912F02882309
:101DA00029F010922F0280E00C94BE0E0895E0916D
:101DB0000201F091030180913A028083E0910201D7
:101DC000F0910301908180913902892B8083E09109
:101DD0000201F0910301908180913802892B808368
:101DE00080912F02882381F0E0910201F09103019C
:101DF0009081892B808380910201909103010E9440
:101E00004C2481110E94CD0E80910201909103011A
:101E10000C9407240C94BB0E9091B20292FD10C05A
:101E200098E0899F90011124262B20932E020E9476
:101E30006D0980912E028595859585950C940A0FE4
:101E40000C946D0910922E0280E00C940A0F2091E0
:101E50002E028095822380932E02982F977099F4FA
:101E600030E0482F082E000C550B2417350759F089
:101E70009091B20292FD07C08595859585950E9447
:101E80008E090C94220F08959091B20292FB2227A2
:101E900020F9281769F080FB92F99093B2028091A3
:101EA000B1029091B2020E948C0F82E00C94270F35
:101EB00008958091B20282FB882780F991E08927FA
:101EC0000C94440F81E00C94440F80E00C94440F78
:101ED00080E090E00E94D62C21E0893E9E4F09F0E0
:101EE00020E0822F089582E090E00C94C82C83E0DB
:101EF00090E00C94C82CCF9384E090E00E94C82C12
:101F0000C82F82E290E00E94C82C2C2F30E0A9015B
:101F1000582BCA01CF910895CF93C92F682F84E021
:101F200090E00E94DC2C6C2F82E290E0CF910C9428
:101F3000DC2CAB01BC018FE090E00C94EE2CAB01EB
:101F4000BC0183E190E00C94EE2C60E070E0CB01EA
:101F50000C949F0F60E070E0CB010E94990F0C94ED
:101F6000A50F69EE7EEF80E090E00E94FA2C60E021
:101F700082E090E00E94DC2C60E083E090E00E9430
:101F8000DC2C1092F2011092F3011092F4011092E5
:101F9000F50160E084E090E00E94DC2C60E082E2E9
:101FA00090E00E94DC2C60E085E090E00E94DC2C58
:101FB00060E086E090E00E94DC2C6FEF87E090E02C
:101FC0000E94DC2C40E050E0BA0188E090E00E94E2
:101FD000EE2C60E08DE090E00E94DC2C40E050E0D0
:101FE000BA0188E190E00E94EE2C60E087E190E089
:101FF0000E94DC2C40E050E0BA018CE190E00E94AD
:10200000EE2C60E070E080E290E00E94FA2C40E06C
:1020100050E0BA0188E190E00E94EE2C0C94AA0FE7
:102020000C94B10F682F8EE090E00C94DC2C0E9491
:10203000382560934A0270934B0280934C02909330
:102040004D0260934602709347028093480290933A
:102050004902089585B7806885BF85B7806885BFC8
:1020600008950C94461508950C9433100C94331075
:102070000C9436100C9433100C943A100C943310CA
:102080000E942A1080E593E10E94EA230E943E10FC
:102090000C943C100E9434100C9433100E942325A1
:1020A0000E940F130E942D140E94131E0E94F81C00
:1020B0000C9438109F92AF92BF92CF92DF92EF9222
:1020C000FF920F931F93CF93DF93CDB7DEB72A977D
:1020D0000FB6F894DEBF0FBECDBF0E94BB148111B6
:1020E0000E9417108CE3A82E82E0B82E00E010E0CA
:1020F000902E802F0E947713D82EF501C1905F019A
:10210000C826B1F40F5F1F4F0A30110589F78FEF12
:1021100089838A831B820E942C258160782F9D836E
:102120008C8349815A816B818D810E9477042FC0F5
:1021300080914E0281FD0E947D13E12CFF24F394D7
:102140008C2D8F21F1F00E943110882399F0EE82BE
:102150009F82DF2081E009F480E088870E942C259F
:102160008160782F9A8789874E815F8168858A850B
:102170000E947704F801E45CFD4F8081F826F0822C
:1021800006C0E394FF0CF7E0EF12DACFBBCF0E945A
:1021900061190E94F42390913B028917B9F00E94C3
:1021A000F42380933B022A960FB6F894DEBF0FBE4D
:1021B000CDBFDF91CF911F910F91FF90EF90DF90F6
:1021C000CF90BF90AF909F900C946E042A960FB65C
:1021D000F894DEBF0FBECDBFDF91CF911F910F915D
:1021E000FF90EF90DF90CF90BF90AF909F900895B9
:1021F00080E090E00895089526E4829FC0011124B4
:10220000FC0127E0729FE00DF11D1124E60FF11D86
:10221000EE0FFF1FE450FF4F859194910895880FB2
:10222000991FFC01EC5BFB4F859194910895CF932E
:10223000DF930E943812EC01811520E5920708F027
:102240003FC0811540E4940708F0D2C0883E910554
:1022500000F5803E910508F002C1883A910570F4BE
:10226000853A910508F0A6C08130910509F49FC018
:1022700008F4F2C0049708F0F2C0EEC08F3B91055D
:1022800008F4A1C0803C910508F4E6C0805C910987
:10229000A5C0811550E2950760F4C11581E0D8070B
:1022A00008F0DDC0CD3ED10508F4D6C0CE01906562
:1022B000D7C0811520E3920708F093C09F708EC0AD
:1022C000811545E5940708F046C0811554E595074A
:1022D00008F0A6C0C11582E5D80718F5C11521E59B
:1022E000D20708F088C0CE01F4E096958795FA955C
:1022F000E1F7282F23703C2F337081E090E002C07B
:10230000880F991F3A95E2F79C68922B2C2F2F701B
:102310002695269540E2249F90011124822B932B31
:102320009FC09E01237033279C2F96959695C115CB
:10233000D34508F065C041E050E002C0440F551F8E
:102340002A95E2F780E2989F90011124CA01822B1E
:10235000932B9C6885C0811559E5950798F4C115A4
:1023600088E5D80708F061C0C11526E5D20708F056
:1023700073C08C2F0E94CC128F7190E0982F882709
:1023800090626EC081154AE5940708F453C09056D8
:102390008115904208F060C08D2F8F710E94CC1281
:1023A0009E01332730628F71A901582B53C081E001
:1023B00090E056C0855AC82FD0E0CA55DE4F8881BC
:1023C00090E090644DC0885AC82FD0E0CC0FDD1F3C
:1023D000C858DE4F88819981946442C00E940F11D1
:1023E0003FC09927D3FF02C0986C3AC0906C38C0A8
:1023F0009F70906A35C09C2F8827816F906A30C08B
:1024000041E050E002C0440F551F2A95E2F780E2F8
:10241000989F90011124CA01822B932B9A6820C0A7
:10242000982F8827846F906A1BC09C2F8827806F05
:10243000906A16C08F700E94CC129E0194E036956F
:1024400027959A95E1F72F7030E0322F22273069D7
:10245000A901482BCA0104C080E090E001C0CE0170
:10246000DF91CF9108950E94FC100E9417110895EA
:102470008238910569F1B0F48133910509F46DC09A
:1024800048F48932910509F463C08A32910509F450
:1024900069C008958533910509F455C089339105C4
:1024A000B9F00895833E910569F138F4803E9105B5
:1024B000B1F0823E910509F10895863E9105A9F19A
:1024C000873E9105B9F1843E910509F064C023C0AF
:1024D0002091B10220FD4FC021FD4DC00895809193
:1024E000B10280FD44C08091B20280FF44C080915F
:1024F000B10284FD42C083EE4DC08091B10282FFE3
:1025000038C0F5CF8091B10282FD33C08091B20214
:1025100080FD31C0ECCF8091B20281FF32C080914A
:10252000B10284FD2AC087EE35C08091B10283FFDD
:1025300026C0F5CF8091B10283FD21C08091B20207
:1025400081FD1FC0ECCF8091B10285FD1CC01DC074
:102550008091B10285FD19C016C08091B10286FD3F
:1025600016C017C08091B10286FD13C010C089E368
:1025700011C082EE0FC080EE0DC080E00BC086EE71
:1025800009C084EE07C089E205C085E303C08AE282
:1025900001C081E390E008959091B10292FF0DC0D7
:1025A000282F2871283019F4877F846006C0282FCF
:1025B0002471243011F48B7F886093FF0DC0282F85
:1025C0002871283119F4877E846106C0282F247170
:1025D000243111F48B7E88612091B20220FF0DC05E
:1025E000382F3871383019F4877F816006C0382F52
:1025F0003171313011F48E7F886021FF0DC0282F9A
:102600002871283119F4877E816106C0282F217135
:10261000213111F48E7E886194FD877E0895109299
:10262000AD021092AE021092AF021092B002089565
:10263000CF92DF92EF92FF926B017C010E944615D0
:1026400081110EC00E943825C61AD70AE80AF90A75
:10265000C092AD02D092AE02E092AF02F092B00210
:10266000FF90EF90DF90CF9008950F931F930E94FB
:102670004615882321F01F910F910C9438250E9454
:1026800038250091AD021091AE022091AF02309139
:10269000B002600F711F821F931F1F910F91089549
:1026A00080E0089508950E94680F811102C00E9481
:1026B00010100E94730F80934E020E947B0F909324
:1026C000B2028093B1020E9452130E94770F682FCA
:1026D00070E080E090E00E940D096091EE01709141
:1026E000EF018091F0019091F1010C944509E82FE0
:1026F000F0E0E354FD4F80810895089580EA8A95C3
:10270000F1F7089500C008950C947E1308950C9479
:1027100086130C9487130C9486130C948B13F894E3
:10272000E82FE295EF70F0E031A1282F2F7081E0C3
:1027300090E001C0880F2A95EAF7982F909593238F
:1027400091A392A1892B82A37894089508950C9463
:10275000A6130F931F93CF93DF93C0EBD1E0899122
:102760008F3F11F00E948F1381E0C53BD807B9F766
:10277000C9EAD1E000EB11E089918F3F11F00E948E
:102780008F130C171D07C1F7DF91CF911F910F9188
:102790000895CF92DF92EF92FF920F931F93CF9302
:1027A000DF938C01C62FD0E0CE0180559E4F7C0177
:1027B000FC0190819F3F09F447C0D62EF894E92F81
:1027C000E295EF70F0E081A19F7021E030E001C060
:1027D000220F9A95EAF7822B81A382A120952823C4
:1027E00022A378940E948213E9EAF1E040EB51E0E1
:1027F00031E0C12C21912F3F89F0A22FA295AF701B
:10280000B0E090968C9190E02F7002C095958795DE
:102810002A95E2F780FD02C0832F01C080E0C82A1C
:10282000330F4E175F0731F7F70180818F3F11F0AB
:102830000E948F1361E0C11001C060E08D2D0E94E5
:102840008413C00FD11FC882DF91CF911F910F91C8
:10285000FF90EF90DF90CF9008950E9460158091D7
:10286000040180910401811102C095E001C090E053
:102870009093C80285E0891B8093C7020E94A91328
:102880008AE0EDEBF2E0DF01982F1D929A95E9F7CF
:10289000E3EBF2E0DF011D928A95E9F785E00E9403
:1028A0000F150E94E2030C946A15FF920F931F9379
:1028B000CF93DF9300D000D01F92CDB7DEB70E9438
:1028C00046156091C8028823E9F185E0F82E8E0153
:1028D0000F5F1F4FF8018F2D11928A95E9F7862F10
:1028E00090E0B80183549D4F0E947815882389F0A9
:1028F0008091C70290E045E050E0B80183549D4FBD
:102900000E94B22C21E020934F02892B61F410E049
:1029100016C080914F028823D1F3F8011192FA94E6
:10292000E9F710924F02A091C702B0E0A354BD4F47
:1029300085E0F80101900D928A95E1F711E00E947F
:10294000E8030DC070E063547D4F8091C70290E0B2
:1029500083549D4F0E9408160E94A71310E0812FF8
:102960000F900F900F900F900F90DF91CF911F91CC
:102970000F91FF900895EF92FF920F931F93CF93C3
:10298000DF93CDB7DEB72A970FB6F894DEBF0FBE40
:10299000CDBF8E010F5F1F4F8AE0F80111928A951B
:1029A000E9F7F12C6F2DC8010E94C913F394F5E0EB
:1029B000FF12F8CF4AE050E0B80183EB92E00E94AA
:1029C000B22C7C0121E0892B09F420E0E114F10410
:1029D00041F08AE0F801A3EBB2E001900D928A95F4
:1029E000E1F76091C80270E063547D4F45E083EBEE
:1029F00092E00E941015EF2819F40E94551402C0AD
:102A000081E090E02A960FB6F894DEBF0FBECDBFEE
:102A1000DF91CF911F910F91FF90EF90089508954E
:102A2000FF920F931F93CF93DF938C01F62ED72F36
:102A3000C42F222349F081E0809352020E942C256A
:102A40009093510280935002809152028823C1F0EA
:102A500080915002909151020E944425059780F088
:102A6000EF2DFD2FD8014C2F50E0CD01801B910B95
:102A7000841795071CF48D918193F7CF1092520221
:102A8000DF91CF911F910F91FF9008958091550292
:102A900081110DC00E94772C811102C082E001C01B
:102AA00081E080935502823011F40E94722C81E003
:102AB00090915502913009F080E008950C944615EC
:102AC0000E945E15809304010E94461581110C94AA
:102AD000B01508950E944615811102C00C94B215DC
:102AE000089581E0909156029A3008F080E00895B0
:102AF0000F931F93CF93DF93EC018B0180915602CC
:102B00008A3038F4B801CE010E94061681111DC02A
:102B10000AC080915302909154020E944425843F40
:102B2000914080F715C0809156028F3F19F08F5F5A
:102B300080935602809156028A3060F00E942C25C4
:102B4000909354028093530203C01092560202C025
:102B500080E001C081E0DF91CF911F910F91089536
:102B60000C9425220C942822EF92FF920F931F932E
:102B7000CF93DF937901C82F880FDD0B41155105E5
:102B8000A9F08AE08C9FF0018D9FF00D1124EB5F7E
:102B9000FE4F83819481895A9D4F228130E04217F4
:102BA000530708F49A01A9010E94BF2CCE010E948C
:102BB0003223892B09F50115110501F18AE08C9F5B
:102BC000F0018D9FF00D1124EB5FFE4F458150E029
:102BD0000417150708F4A8018AE08C9FF0018D9F67
:102BE000F00D1124EB5FFE4F66817781695A7D4FAE
:102BF000C7010E94BF2C02C080E001C081E0DF91CC
:102C0000CF911F910F91FF90EF9008950C946D1745
:102C10000C9491170F931F93CF93DF9300D000D0A4
:102C2000CDB7DEB76091760270917702809178021D
:102C3000909179020E9453256436710581059105B2
:102C400028F10E943513DC01CB010296A11DB11DB4
:102C500089839A83AB83BC8300E010E020E030E0FE
:102C600044E050E0BE016F5F7F4F82E00E94B415E8
:102C7000182F882361F00E943825609376027093A4
:102C80007702809378029093790201C011E0812F3E
:102C90000F900F900F900F90DF91CF911F910F9198
:102CA0000895AF92BF92CF92DF92EF92FF920F936F
:102CB0001F93CF93DF937C015B016A010E94711522
:102CC000811103C001E010E002C00AE010E0C1E0A1
:102CD000D0E0F894B501C701F60109957894811107
:102CE00015C021960C171D0794F0CC9F9001CD9F25
:102CF000300D300D112480E090E045E34A95F1F766
:102D00000000019682179307C1F7E3CF81E0DF91BE
:102D1000CF911F910F91FF90EF90DF90CF90BF90D8
:102D2000AF9008950F931F93CF93DF93CDB7DEB786
:102D300028970FB6F894DEBF0FBECDBFCE01019627
:102D40000E94311D188560917A0270917B028091FA
:102D50007C0290917D020E945325643671058105A5
:102D6000910510F41123D9F000E010E020E030E0EC
:102D700048E050E0BE016F5F7F4F83E00E94B415D2
:102D8000882359F00E94382560937A0270937B0261
:102D900080937C0290937D0202C080E003C00E9479
:102DA0002E1D81E028960FB6F894DEBF0FBECDBF72
:102DB000DF91CF911F910F910895AF92BF92CF9263
:102DC000DF92EF92FF920F931F93CF93DF9300D088
:102DD00000D000D0CDB7DEB77B01C090BA01D09053
:102DE000BB0101E010E09E012A5F3F4F40E050E050
:102DF00060E070E080E00E94B415182F882309F489
:102E00003EC056018FEFA81AB80A60917202709105
:102E1000730280917402909175020E94532564366A
:102E200071058105910518F105E010E09E012F5F05
:102E30003F4F40E050E060E070E081E00E94B41558
:102E4000182F65E070E0C5010E94141E91E02E81EC
:102E5000281390E0192339F10E94382560937202FB
:102E600070937302809374029093750211C065E0B1
:102E700070E0C5010E94141E9E818913D5CF85E0A4
:102E8000F6013196DE01119601900D928A95E1F7D7
:102E9000112349F085E0FE013196ADE6B2E00190E4
:102EA0000D928A95E1F785E0EDE6F2E0D701019019
:102EB0000D928A95E1F7812F26960FB6F894DEBF22
:102EC0000FBECDBFDF91CF911F910F91FF90EF907B
:102ED000DF90CF90BF90AF9008950F931F93CF9343
:102EE000DF93EC018B014DED56E10E9451168823D2
:102EF00091F04AE056E1B801CE010E9451168823B4
:102F000051F042E956E1B801CE01DF91CF911F9116
:102F10000F910C94511680E0DF91CF911F910F918A
:102F200008950F931F93CF93DF93F894C091BA0144
:102F3000D091BB01CE01019625E0FB01DC0101909F
:102F40000D922A95E1F765E070E00E94141E8883D7
:102F50007894F8946E817F818885998500916902C3
:102F600010916A0220916B0230916C026017710718
:102F70008207930751F06093690270936A0280930D
:102F80006B0290936C020E9418137894F8948989CC
:102F9000882331F060E0CE010A960E94441D198A10
:102FA0007894DF91CF911F910F9108950E94382757
:102FB0000E944E100C9444270E9448270E945A10E9
:102FC0000C9462270E94B3240E941F270E94401085
:102FD0000E94D6170E94DC170E944A10FBCF8091F6
:102FE000840280FF0BC06091320185E0689FB001D0
:102FF000112475956795759567952BC081FF09C05C
:103000006091320185E0689FB00111247595679544
:1030100020C082FF07C06091320185E0689FB00147
:10302000112417C0909183029923D1F0609131014E
:10303000961788F72091320185E0289F900111248E
:10304000929FA001939F500D112470E0CA010E942D
:10305000982C6038710540F46115710519F406C0AB
:1030600065E070E0862F08958FE7089581E0089568
:103070008091840280FF08C060912E0170E07595F8
:1030800067957595679521C081FF06C060912E01F7
:1030900070E07595679519C082FF04C060912E019C
:1030A00070E010C090918202992399F060912D01F7
:1030B0009617A0F780912E01899FC001112470E01E
:1030C0000E94982C6038710540F46115710519F45F
:1030D00006C061E070E0862F08958FE7089581E0D3
:1030E00008958D3E21F40E94EF17819504C08E3E15
:1030F00029F40E94EF178093880208958F3E21F4EF
:103100000E94EF17819504C0803F29F40E94EF17B9
:10311000809387020895893F19F40E94381805C0EA
:103120008A3F31F40E94381881958093890208956E
:103130008B3F21F40E943818819504C08C3F29F4FC
:103140000E94381880938A0208959FE0980F983063
:1031500078F421E030E0A90102C0440F551F9A9590
:10316000E2F7CA0190918602892B80938602089526
:103170008D3F21F48091840281600BC08E3F21F449
:1031800080918402826005C08F3F29F4809184027F
:1031900084608093840208958D3E39F49091880272
:1031A00097FF35C01092880259C08E3E29F4909145
:1031B00088021916BCF32BC0909187028F3E29F428
:1031C00097FF25C01092870249C0803F19F4191655
:1031D000CCF31DC090918902893F29F41916BCF4E3
:1031E000109289023BC08A3F19F497FF10C0F8CFB4
:1031F0008B3F39F490918A0297FF09C010928A029E
:103200002DC08C3F21F490918A021916BCF39FE0E7
:10321000980F983080F421E030E0A90102C0440FFB
:10322000551F9A95E2F7CA018095909186028923ED
:103230008093860213C08D3F21F4809184028E7F9B
:103240000BC08E3F21F4809184028D7F05C08F3F9B
:1032500029F4809184028B7F80938402809187027D
:10326000811106C080918802811102C010928302F0
:1032700080918902811106C080918A02811102C069
:103280001092820208950E942C252091870221111C
:1032900004C020918802222321F090938102809320
:1032A000800220918902211104C020918A022223E8
:1032B00021F090937F0280937E0285E892E00C9447
:1032C0001224EF92FF920F931F93CF93DF9300D0BE
:1032D00000D000D0CDB7DEB786E0E5E8F2E0DE0151
:1032E000119601900D928A95E1F7E0908702F09097
:1032F00088020091890210918A021092870210922E
:1033000088021092890210928A02E11003C0FF2005
:1033100009F45DC080918002909181020E94442551
:10332000AC0190918302992339F02091330130E070
:103330002417350758F04BC0209134018AE0289FAC
:10334000900111242417350718F041C09F3F19F050
:103350009F5F90938302EE2061F00E94EF171E148E
:1033600014F09FEF01C091E0989F902D112490934D
:103370008702FF2061F00E94EF171F1414F09FEFE7
:1033800001C091E0989F902D112490938802309174
:1033900087023323E1F0209188022223C1F045EB1C
:1033A0003403C0011124992319F09093870203C0BC
:1033B00081E08093870235EB2303C0011124992318
:1033C00019F09093880203C081E080938802011174
:1033D00003C0112309F45DC080917E0290917F02A9
:1033E0000E944425AC0190918202992339F02091EA
:1033F0002F0130E02417350758F04BC020913001E1
:103400008AE0289F900111242417350718F041C045
:103410009F3F19F09F5F90938202002361F00E940A
:103420003818101614F09FEF01C091E0989F902D6E
:10343000112490938902112361F00E94381811160B
:1034400014F09FEF01C091E0989F902D112490936C
:103450008A02309189023323E1F020918A022223EB
:10346000C1F045EB3403C0011124992319F0909366
:10347000890203C081E08093890235EB2303C001F8
:103480001124992319F090938A0203C081E080935C
:103490008A028091870281110BC08091880281117C
:1034A00007C080918902811103C080918A02811135
:1034B0000E944319EB82FC820D831E8386E0FE018D
:1034C0003196A5E8B2E001900D928A95E1F7269633
:1034D0000FB6F894DEBF0FBECDBFDF91CF911F9125
:1034E0000F91FF90EF900895E5E8F2E086E0DF01AC
:1034F0001D928A95E9F7109283021092820210922F
:1035000084020895EF92FF920F931F93CF93DF935E
:103510008B01682F11110AC0442329F0E82FF0E035
:10352000EC5BFB4F6491762F862F75C0212F30E026
:10353000E82FF0E0442321F0EC5BFB4FE491F0E056
:1035400046E0049FC0011124CFEFD0E0BE010E94ED
:10355000842C4BEA4603C001479F900D1124800F35
:10356000911D800F911D982F990F890FAE01421B5D
:10357000530B4E9FD0014F9FB00D5E9FB00D112495
:103580009B2F189FA0011124452F55278E01041B46
:10359000150B0E9FA0010F9F500D1E9F500D112463
:1035A0007E01E81AF108E29E8001E39E100DF29E72
:1035B000100D1124212F3327C21BD30BCE9F900156
:1035C000CF9F300DDE9F300D112462307105A9F0C0
:1035D00048F46115710569F061307105C9F48B2FEC
:1035E000752F0DC06430710581F058F0663071059B
:1035F00079F47E2F8B2F932F0DC0832F7B2F9E2F3F
:1036000009C08E2F7B2F952F05C08E2F732F02C0E0
:103610007E2F852F692FDF91CF911F910F91FF9002
:10362000EF90089541E00E94821A08950E94121BB3
:103630000895CF93DF93762FE901682F842F0E949E
:10364000161B798368838A83DF91CF9108958091D7
:10365000CA02982F9695913021F0817082608093F4
:10366000CA02089588E090E00C94D02CCF92DF92AB
:10367000EF92FF926B017C010E94271BB701A6010C
:1036800088E090E0FF90EF90DF90CF900C94EE2CCC
:10369000EAECF2E083E0808311828FEF8283838300
:1036A0001482ACE8B2E012968C9112978360129665
:1036B0008C9360817181828193810C94361B9091EF
:1036C000CE02933018F49F5F9093CE02882351F07E
:1036D0006091CA027091CB028091CC029091CD0290
:1036E0000C94361B089581E00C945F1B9091CE02E0
:1036F000992319F091509093CE02882351F0609154
:10370000CA027091CB028091CC029091CD020C94B0
:10371000361B089581E00C94761B70E00C94E81D34
:10372000609136018091CA0280FF0AC08091350104
:1037300023E0829FC001112481539D4F0C948D1B67
:103740008091370190913801891780F7E82FF0E0D8
:103750009F01220F331FE20FF31FE153FD4F118230
:10376000108212828F5FF0CFEAECF2E080818E7FD0
:10377000808360817181828193810E94361BECE895
:10378000F2E08281816082832FEF80E792E0215016
:1037900080409040E1F700C000000C94901BEAECE0
:1037A000F2E080818E7F8083ECE8F2E082818160AC
:1037B00082832FEF80E792E0215080409040E1F734
:1037C00000C000000C94901B9091CA0290FF16C09C
:1037D0009091370120913801921770F4E92FF0E0B1
:1037E000DF01AA0FBB1FEA0FFB1FE153FD4F8183CF
:1037F000608342839F5FF0CF0C94901B0895EF92FB
:10380000FF920F931F93CF93DF9300D01F92CDB7FA
:10381000DEB79091CA0290FF3DC0E22E142F062F12
:10382000F82EE92FE695F0E0E454FE4F8081809376
:103830008C029E7F923059F49E012F5F3F4F8F2D57
:103840000E94191B4B8169818A810E94E41B80912F
:10385000CB02F81208C08091CC02081304C08091FA
:10386000CD02181729F080918E02826080938E021B
:10387000F092CB020093CC021093CD02EE2051F0D7
:103880006091CA027091CB028091CC029091CD02DE
:103890000E94361B0F900F900F90DF91CF911F91D8
:1038A0000F91FF90EF900895EAECF2E09181282FBC
:1038B0004381628188E0890F0C94FF1B81E00C94A6
:1038C000541CEAECF2E09181282F4381628188EF59
:1038D000890F0C94FF1B81E00C94611CEAECF2E070
:1038E000628121E1620F08F46FEF282F438181810B
:1038F0000C94FF1B81E00C946E1CEAECF2E06281F8
:1039000021E1621B08F460E0282F438181810C943F
:10391000FF1B81E00C947D1CEAECF2E0438121E185
:10392000420F08F44FEF282F628181810C94FF1B16
:1039300081E00C948C1CEAECF2E0438121E1421B13
:1039400008F440E0282F628181810C94FF1B81E004
:103950000C949B1C20E00C94FF1B8091CA0280FFFA
:103960001DC0817082608093CA0280918E02816046
:1039700080938E02662351F06091CA027091CB024F
:103980008091CC029091CD020E94361B4091CD02D5
:103990006091CC028091CB020C94AA1C0895682FF0
:1039A00081E00C94AD1C81E00C94CF1C682F9091A9
:1039B000CA0296958FEF890F09F481E00C94AD1C33
:1039C00081E00C94D61C61E00C94AD1CEAECF2E0B2
:1039D00080818160808386950C94E31C8091CA026B
:1039E00080FD0C94B41B0C94E61C60E00C94AD1CA0
:1039F00080918B02811131C00E94680F811104C037
:103A00000E9410100E94481B0E94321B6093CA0241
:103A10007093CB028093CC029093CD0280918E0262
:103A2000836080938E026E7F61F40E94481B0E9427
:103A3000321B6093CA027093CB028093CC029093A6
:103A4000CD020E94271B8091CA0280FF03C0869589
:103A50000E94F51C81E080938B02089510928E02E3
:103A6000089525E0EAECF2E0DC0101900D922A9540
:103A7000E1F720918C0230918D0240918E02FC0181
:103A800025833683478308951F93CF93DF93EC01FB
:103A9000162F8F8180FF0FC0888180FF0AC0809120
:103AA000CA0281608093CA02888186950E94AD1CFB
:103AB00002C00E94CF1B8F8181FF09C0212F4B8143
:103AC0006A818981DF91CF911F910C94FF1BDF9157
:103AD000CF911F910895882311F0FA0101C0FB01D5
:103AE00009941F93CF93DF93FB01128111116BC0D7
:103AF000EC010E94850E8272CA3CFCE5DF0709F4E6
:103B000050C0C0F4C63CECE5DE07E1F148F4C43C2B
:103B10009CE5D90759F178F5C33CDC4521F121C07A
:103B2000C83C9CE5D90799F1B8F54EE55CE16BE638
:103B30007CE125C0CE3CFCE5DF0709F441C050F430
:103B4000CC3CECE5DE0791F1B0F548E95CE167EAD1
:103B50007CE115C0C73D8CE5D807A8F1CE35DD4521
:103B600091F111E030C00E94EE1C2DC040EE5CE1EE
:103B700063ED7CE104C043ED5CE160EE7CE10E941A
:103B80006B1D21C04BE65CE16EE57CE1F8CF49E8B6
:103B90005CE16AE77CE1F3CF4AE75CE169E87CE15C
:103BA000EECF47EA5CE168E97CE1E9CF4AE85BE116
:103BB00063E77BE1E4CF43E75BE16AE87BE1DFCFEA
:103BC00081E00E94E31C812FDF91CF911F91089526
:103BD000539A2BB1277F3BB138604FB7F894FC0163
:103BE000CB01880F991F680F791F6E0F7F1FE61793
:103BF000F70789F0819198E03BB9000000C087FF8A
:103C00002BB9880F000000C000C000C02BB900C055
:103C10009A9591F7ECCF4FBF8FE594E00197F1F7BC
:103C200000C0000008950895FC01680F791F8FEF10
:103C300091E3E617F70771F02191822728E030E041
:103C400087FF03C0880F892701C0880F21503109E1
:103C5000B9F7EFCF0895CF93DF93EC01FB01828199
:103C6000882309F426C1C430FDE5DF0760F4CB3FAB
:103C70009CE5D90768F49E0122503C45243131056A
:103C800008F018C105C0C236EDE5DE0709F012C123
:103C90000E947B0F9093B2028093B102C031FCE589
:103CA000DF0709F4CAC008F041C0C8309CE5D90755
:103CB00009F4A4C0F0F4C430FCE5DF0709F48CC0BB
:103CC00068F4C2309CE5D90709F482C0C330DC45F2
:103CD00009F0E5C08091B1028260DFC0C630FCE52A
:103CE000DF0709F483C008F085C08091B1028860C5
:103CF000D4C0CC309CE5D90709F490C068F4CA3030
:103D0000FCE5DF0709F47EC008F084C00E94AC081F
:103D10008091B1028068C1C0CE309CE5D90709F41A
:103D200081C008F086C08091B10294C0CD3FFCE50F
:103D3000DF0709F47BC038F5C4319CE5D90709F4E5
:103D40009AC058F4C231FCE5DF0709F47AC008F0E4
:103D50007EC08091B1028F7BA0C0CB3F9CE5D9078C
:103D6000F1F108F03FC0C531DC4509F098C0809101
:103D7000B10282FB222720F991E0922790FB82F981
:103D800090FB83F98AC0C1308DE5D80709F467C07C
:103D900050F48091B202CF3FECE5DE07C1F108F0AC
:103DA0005BC08D7F65C0C3308DE5D80709F471C055
:103DB00008F46DC0C236DD4509F071C08091B102D2
:103DC00084FB222720F991E0922790FB84F965C0BB
:103DD0008091B102816061C08091B10216C0809172
:103DE000B20216C08091B202826042C08091B102DC
:103DF000806153C08091B10280624FC08091B10256
:103E000080644BC08091B1028860846046C082604B
:103E100081602EC08091B1028E7F3FC08091B1023F
:103E20008D7F3BC08091B102877F37C08091B20205
:103E300014C08091B1028F7E30C08091B1028F7D1D
:103E40002CC00E94AC088091B1028F7726C080916F
:103E5000B102877F8B7F21C08D7F8E7F09C08091CB
:103E6000B202982F909591708E7F892B90FB81F9EB
:103E70008093B20214C00E94AC088091B10287FB0B
:103E8000222720F991E0922790FB87F906C081E074
:103E900001C080E00E94121002C08093B1028091A4
:103EA000B1029091B2020E948C0F0E94AC0880E097
:103EB00001C081E0DF91CF910895893289F1F0F45A
:103EC000843171F1B0F4873009F077C08EE18093CE
:103ED000340182E3809333018AE08093320184E1EC
:103EE0008093310188E080932E0188E280932D0138
:103EF00064C092EE980F9A30F0F05FC0803509F4FC
:103F000044C028F48F3409F058C08AE03FC081359E
:103F100029F0823509F051C081E038C08FEF36C0FA
:103F200080919102882379F110929102109290026F
:103F300010928F0242C08D5180939102833099F08C
:103F400038F4813069F08230D9F483E391E00DC018
:103F5000853099F078F0863099F48DE291E005C0D3
:103F600084E391E002C082E391E090939002809319
:103F70008F0223C081E391E0F8CF8EE291E0F5CF8C
:103F8000109291021AC080E0089586EFE0918F02AE
:103F9000F0919002309789F02081082E000C990B47
:103FA000820F911D8F3F910519F014F08FEF04C01F
:103FB00097FF02C0108201C0808381E008950F93B3
:103FC0001F9341E050E060E070E08A019B0104C073
:103FD000000F111F221F331F8A95D2F7C901B801A4
:103FE0000E940D091F910F910C94AC088B3109F4BC
:103FF00068C058F58B3009F486C078F4863009F42F
:1040000045C020F4853009F44BC07FC0873009F4E7
:104010004AC0883009F477C078C0803109F464C0A0
:1040200068F48E3009F071C080914E0282FB222725
:1040300020F991E0922790FB82F94CC0863109F477
:1040400062C0893109F45FC060C08A32E1F060F477
:10405000873209F455C028F48E3108F456C08D51CA
:1040600050C08932E9F051C0833450F48A3308F0EB
:1040700045C0853309F444C0883309F444C045C0C1
:104080008334F1F142C00E9410103DC080914E0275
:10409000817F8E7F80934E0281E08093920208950B
:1040A0000E94F60330C080914E02982F9095917037
:1040B00090FB80F980934E02911125C0897F877F04
:1040C00010C080914E0281FB222720F991E09227B7
:1040D00090FB81F980934E029923A9F080914E02C2
:1040E000816080934E020FC080914E0283FB222795
:1040F00020F991E0922790FB83F9ECCF895301C01E
:1041000080E00E94DF1F81E0089580E0089580E054
:1041100008950C948720CF93C82F8091920281300C
:1041200069F038F08230C1F58C2F0E945D1F81E06C
:1041300039C00E94850E823289F504C00E94850E26
:10414000823261F48C2F0E948920811104C08C2F4F
:104150000E94F61F1FC081E090E01CC08C2F0E94BF
:104160008720811116C0C43189F058F4CB3089F012
:10417000C031B1F482E08093920288E30E945D1F17
:1041800008C0C93219F0C83321F00AC01092920257
:1041900007C081E0817006C01092920280E002C0E8
:1041A00080E0F8CFCF910895CF93DF9386319C457F
:1041B00041F5EB010E94850E982F8A812091020122
:1041C00030910301882379F09A7A81E009F480E044
:1041D00080939302911102C069E201C065E3C901B5
:1041E0000E948E240AC080919302811102C069E26C
:1041F00001C065E3C9010E9490240E94D70E80E0AF
:1042000001C081E0DF91CF9108950F931F93CF9369
:10421000DF93C42FD22FFC0182818823C9F0409301
:1042200096020E942C25909395028093940280E23E
:104230008C0F883008F057C0C77081E001C0880F2C
:10424000CA95EAF7DF91CF911F910F910C94FE056B
:1042500080919602481330C080919402909195020B
:104260000E944425883C910538F510E21D0FCD17BA
:10427000B9F080E28C0F883040F4C77081E001C053
:10428000880FCA95EAF70E940506183028F581E0E4
:104290009D2F977001C0880F9A95EAF70E94FE053E
:1042A000802F0E94F5051830F0F4D77081E001C02E
:1042B000880FDA95EAF70AC080E28C0F883098F40C
:1042C000C77081E001C0880FCA95EAF7DF91CF91EE
:1042D0001F910F910C940506802FDF91CF911F91B4
:1042E0000F910C94F505DF91CF911F910F910895D7
:1042F0000F939C01CB01243F4CE5340731F188F446
:10430000293DFCE53F07D9F02A3D4CE5340779F11A
:10431000283D3C45A9F506E221EE41EE68ED7CE53D
:104320002BC0263FFCE53F07E1F0A8F0273F3C45C6
:1043300039F507E225EE46EE67EF7CE51DC007E2A2
:1043400025EE45EE69ED7CE517C006E221EE40EE74
:1043500064EF7CE511C007E225EE44EE65EF7CE5F5
:104360000BC006E221EE42EE66EF7CE505C008E2F6
:1043700021E045EE6AED7CE50E94052180E008C061
:10438000FC018281882319F01092960201C081E01D
:104390000F9108958EE1489B02C08150E1F7489B40
:1043A000FECF0895589880E28A95F1F7589A0895BB
:1043B000FC012AE02A95F1F728E090E080E031E066
:1043C00040E14A95F1F7880F489B02C0816093272E
:1043D00000C0000040E14A95F1F7215089F720E143
:1043E0002A95F1F729B100C0000030E13A95F1F7C4
:1043F000217092272081920F90830895EF92FF926F
:104400000F931F93CF93DF931F92CDB7DEB719821F
:104410008C017C01E60EF11C0E151F0551F00E9467
:10442000CA21CE0101960E94D821F80181938F0103
:10443000F3CF81E09981911180E00F90DF91CF91CE
:104440001F910F91FF90EF900895509A589A0895F8
:104450005098589AE89AE9E6F0E080818C7F808352
:104460000895615091E001C0990F6A95EAF720E044
:1044700031E0992361F0492F482319F0589A2327F6
:1044800001C0589840E24A95F1F79695F2CF222361
:1044900011F0589A01C0589880E28A95F1F758981F
:1044A0000895FF920F931F93CF93DF93EC018C013C
:1044B000060F111DC017D10741F0F9900E94D221BB
:1044C00068E08F2D0E943122F5CFDF91CF911F91AF
:1044D0000F91FF9008951F920F920FB60F92112423
:1044E000EF92FF920F931F932F933F934F935F93FE
:1044F0006F937F938F939F93AF93BF93EF93FF93AC
:10450000CF93DF931F92CDB7DEB719820E94CA21E5
:10451000CE0101960E94D821A82FA695A695A69512
:104520009A2F969595702A2F2570920F292F237018
:1045300096959695920F877089137CC08981811119
:1045400079C0A53008F076C080E18A95F1F7589AD5
:10455000509AB2E0BA95F1F700C05898EA2EF12CC3
:10456000EAE0AE9FD0011124AB5FBE4F1896ED91EB
:10457000FC9119973097B1F06091BA017091BB012D
:1045800016962D913C911797260F371F13968D91F4
:104590009C911497680F791F15964C911597129658
:1045A0008C9109958AE08E9DF0018F9DF00D11246C
:1045B000EB5FFE4F6581662351F08091BA019091C7
:1045C000BB0126813781820F931F0E9451220E94D6
:1045D000D221F0E1FA95F1F758985098589A80E175
:1045E0008A95F1F78AE08E9D80018F9D100D112430
:1045F0000B5F1E4FD80112966C911297662399F0AB
:104600008091BA019091BB0113962D913C91149722
:10461000820F931F0E94FE21D801ED91FC91811120
:1046200005C082E004C0D801ED91FC9188E0808350
:104630000E94CA210F90DF91CF91FF91EF91BF911E
:10464000AF919F918F917F916F915F914F913F912A
:104650002F911F910F91FF90EF900F900FBE0F9031
:104660001F9018950F931F93CF93DF93853091057B
:104670000CF0A9C02AE0289FF001299FF00D112419
:10468000EB5FFE4F20813181232B09F49CC0EC01AC
:10469000F894509A589885E08A95F1F700008C2F8D
:1046A000869585709C2F9570890F982F93708695AD
:1046B00086958E0123E0000F111F2A95E1F7890FDF
:1046C000082B0E94D221A4E0AA95F1F700C068E06F
:1046D000802F0E943122B0E1BA95F1F75098589A94
:1046E000489902C000C0FCCF87E090E0489B17C00B
:1046F000019799F4509A589A8AE08C9FF0018D9F07
:10470000F00D1124EB5FFE4F0190F081E02D81E070
:104710008083789481E090E058C000C0E7CF8AE0C1
:104720008C9F80018D9F100D11240B5F1E4FF8018F
:1047300065816623B9F08091BA019091BB01268111
:104740003781820F931F0E94FE2181110BC0509A66
:10475000589AD801ED91FC9182E08083789482E0B0
:1047600090E033C00E94CA21B0E2BA95F1F75898A0
:10477000509AE0E1EA95F1F78AE08C9FF0018D9F75
:10478000F00D1124EB5FFE4F6281662351F08091A2
:10479000BA019091BB0123813481820F931F0E9443
:1047A00051220E94D2218AE08C9FF0018D9FF00D52
:1047B0001124EB5FFE4F0190F081E02D1082789480
:1047C00080E090E002C084E090E0DF91CF911F9103
:1047D0000F9108959093BF018093BE010895909327
:1047E0009D0280939C0208950E944615811103C08A
:1047F000809197020895E0919C02F0919D0230977C
:1048000021F00190F081E02D099480E00895E0917D
:104810009C02F0919D02309721F00280F381E02DFF
:1048200009940895E0919C02F0919D02309739F02F
:1048300022E0DC012C930480F581E02D0994089599
:1048400020919A0230919B022817390771F09093BA
:104850009B0280939A02E0919C02F0919D02309716
:1048600021F00680F781E02D0994089520919802A7
:10487000309199022817390771F09093990280932B
:104880009802E0919C02F0919D02309721F0008403
:10489000F185E02D09940895FC01329697E080E0BF
:1048A000915029F021912223D9F38F5FF9CF0895F8
:1048B000662349F0FC01329608962191621729F08F
:1048C000E817F907D1F780E0089581E008959C0189
:1048D000FC0132969FEF80E04191461789F09F3F9F
:1048E00019F4411101C0982F8F5F8630A9F79F3FBF
:1048F00039F0F901E90FF11D97FDFA9562830895EA
:1049000008959C012A5F3F4FFC014281461301C07C
:104910001282019682179307B9F708950C946724C1
:104920000C948124029626E0FC0111922A95E9F765
:10493000089508950C94992483E080939E020C942A
:104940009A24811102C081E001C082E080939E021E
:104950000C949A240C94A12481E080939E020C94E0
:104960009A240C94AC24089580910103843031F191
:104970000E94EF0310929F0220E488E190E00FB6BE
:10498000F894A895809360000FBE2093600083B7D1
:10499000817F846083BF83B7816083BF789488956B
:1049A00083B78E7F83BF0FB6F894A895809160007F
:1049B000886180936000109260000FBE0895089592
:1049C0000C94DF24CF930E94E0240E94BB140E9429
:1049D000DF24C0E08C2F0E947713811104C0CF5FC9
:1049E000CA30C1F701C081E0CF9108950E94AC08A0
:1049F0000C9460041F920F920FB60F9211248F93A4
:104A00009F93AF93BF9380919F02811113C08091B8
:104A1000F9029091FA02A091FB02B091FC0241963A
:104A2000A11DB11D8093F9029093FA02A093FB029D
:104A3000B093FC02BF91AF919F918F910F900FBEE9
:104A40000F901F90189582E084BD93E095BD9AEF7A
:104A500097BD80936E0008952FB7F8948091F90266
:104A60009091FA02A091FB02B091FC022FBF089531
:104A70002FB7F8946091F9027091FA028091FB02CD
:104A80009091FC022FBF08959C014FB7F89480913C
:104A9000F9029091FA02A091FB02B091FC024FBF83
:104AA000821B930B0895CF92DF92EF92FF922FB764
:104AB000F894C090F902D090FA02E090FB02F090D6
:104AC000FC022FBFA7019601261B370B480B590B81
:104AD000CA01B901FF90EF90DF90CF9008957894CC
:104AE0001F920F920FB60F9211248F939F93AF9343
:104AF000BF938091F9029091FA02A091FB02B091CC
:104B0000FC020196A11DB11D8093F9029093FA0257
:104B1000A093FB02B093FC02BF91AF919F918F9144
:104B20000F900FBE0F901F90189587E797E790930F
:104B30000108809300089AE088E10FB6F894A895E0
:104B4000809360000FBE90936000FFCF8091AB0216
:104B50000895089522E02093E9002FEF3091E800B6
:104B6000215035FD06C035ED3A95F1F700002111D1
:104B7000F5CF2091E80025FF0BC040E050E066E053
:104B800070E00E94D4278091E8008E778093E8003F
:104B90000895CF93DF9321E02093E9002FEF309128
:104BA000E800215035FD06C035ED3A95F1F70000DB
:104BB0002111F5CF2091E80025FF14C0EC0140E061
:104BC00050E068E070E00E94D4278091E8008E7782
:104BD0008093E80088E0FE01A3EAB2E001900D9224
:104BE0008A95E1F7DF91CF9108958093A0027093A9
:104BF000A2026093A10280910103843001F582E05A
:104C00008093E9008FEF9091E800815095FD06C0F8
:104C100095ED9A95F1F700008111F5CF8091E800AC
:104C200085FF0DC040E050E063E070E080EA92E074
:104C30000E94D4278091E8008E778093E800089541
:104C4000BC0184E00C94F525BC0183E00C94F525AF
:104C500080910003811109C00E9465290E94C22928
:104C60008091E20084608093E20008951092000336
:104C700008950C94B1246091FD0281E0611101C09E
:104C800080E00C949C249091010381E0943009F021
:104C900080E06091FD020C94A12442E061EC81E08F
:104CA0000E94DE2842E261EC82E00E94DE289091C0
:104CB000010381E0943009F080E06091FD020C94E2
:104CC000AA2480910303833009F461C030F4813059
:104CD00071F0823009F49AC008958A3009F486C0D0
:104CE0008B3009F46CC0893009F0A8C020C08091D5
:104CF0000203813A09F0A2C08091E800877F809387
:104D0000E8008091060390910703892B21F468E065
:104D100083EA92E003C060E080E090E070E00E94EF
:104D20001F288091E8008B778093E8000895809198
:104D30000203813209F082C080910603909107033B
:104D4000029708F07BC08091E800877F8093E8009D
:104D50008091E80082FD05C0809101038111F8CFA8
:104D60006DC02091F3008091F20090E0922B0297A9
:104D700031F48091F100813011F0863021F480917E
:104D8000F1008093AB028091E8008B7753C0809153
:104D90000203813A09F052C0809106039091070303
:104DA000892B09F04BC08091E800877F8093E80051
:104DB0008091E80080FFFCCF8091460136C0809151
:104DC00002038132D9F58091060390910703892B64
:104DD000A9F58091E800877F8093E8000E9413295D
:104DE00080910403809346010C94AC0880910203E7
:104DF000813221F58091E800877F8093E8000E944E
:104E00001329809105038093AC02089580910203D9
:104E1000813AA1F48091E800877F8093E800809137
:104E2000E80080FFFCCF8091AC028093F10080917C
:104E3000E8008E778093E8000C941329089584B7D6
:104E4000877F84BF0FB6F894A89580916000886131
:104E500080936000109260000FBE90E080E80FB673
:104E6000F89480936100909361000FBE0C94AC2481
:104E70000E9465290E94C229E2EEF0E080818460F0
:104E8000808378940C94572C8AE391E00C94EF2360
:104E9000809101038530A9F480910103853079F474
:104EA0000E94B4248091FF028823B1F30E94E2247F
:104EB000882391F30E94BE270E94AC08EDCF0C948A
:104EC000F624089508950C946527292F332723305D
:104ED0003105C9F060F42130310581F0223031050F
:104EE00009F044C08BE390E026E835E043C021326E
:104EF0003105E1F02232310549F138C082E190E01C
:104F000021EC35E037C099278130910549F028F030
:104F1000029761F5E4E4F5E005C0E2E8F5E002C0DF
:104F2000ECE6F5E0849190E09F0124C061157105E5
:104F300041F061307105D1F489E090E021EB35E07A
:104F400019C089E090E028E935E014C061157105C9
:104F500041F06130710551F48BE790E023ED35E0CD
:104F600009C080E490E02EE436E004C080E090E0E8
:104F700020E030E0FA0131832083089580E189BD8B
:104F800082E189BD09B400FEFDCF8091D8008F7DFC
:104F90008093D8008091E00082608093E00080914F
:104FA000E00081FDFCCF0895CF92DF92EF92FF9257
:104FB0000F931F93CF93DF93EC018B017A010E9433
:104FC0003229811133C0E114F10439F0F7018081F5
:104FD0009181081B190BC80FD91FC12CD12C0115A9
:104FE000110519F18091E80085FD16C08091E80057
:104FF0008E778093E800E114F10449F0F701808195
:105000009181C80ED91ED182C08285E00FC00E9456
:105010003229882321F30AC089918093F10001503D
:105020001109FFEFCF1ADF0ADACF80E0DF91CF91CD
:105030001F910F91FF90EF90DF90CF9008952091F6
:105040000803309109032617370748F061157105E9
:1050500039F42091E8002E772093E80001C0B901CF
:10506000FC0120E06115710579F18091010388232D
:10507000F1F18530F1F18091E80083FD3CC0809131
:10508000E80082FD2EC08091E80080FFEBCF2091E8
:10509000F3008091F20090E0922B6115710551F0C0
:1050A0008830910538F421912093F1006150710905
:1050B0000196F3CF21E0089709F020E08091E80005
:1050C0008E778093E800CECF2111CFCF0AC0809198
:1050D0000103882361F0853061F08091E80083FD51
:1050E0000AC08091E80082FFF2CF80E0089582E05C
:1050F000089583E0089581E0089520910803309198
:1051000009032617370748F06115710539F4209116
:10511000E8002E772093E80001C0B901FC0120E0EF
:105120006115710591F180910103882309F440C054
:10513000853009F43FC08091E80083FD3DC0809137
:10514000E80082FD2FC08091E80080FFE9CF209128
:10515000F3008091F20090E0922B6115710559F0F7
:105160008830910540F424912093F10031966150EC
:1051700071090196F2CF21E0089709F020E08091B3
:10518000E8008E778093E800CBCF2111CCCF0AC006
:1051900080910103882361F0853061F08091E800FF
:1051A00083FD0AC08091E80082FFF2CF80E008957D
:1051B00082E0089583E0089581E00895982F973064
:1051C00068F59093E900981739F07091EC00209100
:1051D000ED005091F00003C0242F762F50E021FD08
:1051E00002C09F5FECCF3091EB003E7F3093EB002D
:1051F0003091ED003D7F3093ED003091EB00316058
:105200003093EB007093EC002093ED005093F0008E
:105210002091EE0027FDE5CF80E008958F70809308
:10522000E90081E008958091020387FF11C0809119
:10523000E80082FD05C0809101038111F8CF11C003
:105240008091E8008B770BC080910103882349F09F
:105250008091E80080FFF8CF8091E8008E778093FE
:10526000E80008952091E4003091E50095E6409132
:10527000EC00842F817040FF23C08091E80080FD06
:105280001DC080910103882399F0853099F08091A9
:10529000EB0085FD11C04091E4005091E50024171A
:1052A000350729F3915011F09A01E1CF84E0089578
:1052B00082E0089583E0089581E0089580E00895F4
:1052C0004091E80042FFDDCF08950E94D3290E945B
:1052D000DB29E0EEF0E0808181608083E8EDF0E0A2
:1052E00080818F77808319BCA7EDB0E08C918E7F91
:1052F0008C9380818F7E80831092000308950F939A
:105300001F93CF93DF930E94D3290E94DB29C8ED1E
:10531000D0E088818F7788838881806888838881BE
:105320008F7D888319BC109201031092FD021092A8
:10533000FF021092FE0200EE10E0F80180818B7FE8
:10534000808388818160888342E060E080E00E9401
:10535000DE28E1EEF0E080818E7F8083E2EEF0E0F7
:10536000808181608083808188608083F801808172
:105370008E7F8083888180618883DF91CF911F91A8
:105380000F910895E8EDF0E080818F7E8083E7ED56
:10539000F0E080818160808384E082BF81E080933F
:1053A00000030C947F29E8EDF0E080818E7F8083FC
:1053B0001092E20008951092DA001092E100089530
:1053C0001F920F920FB60F9211242F933F934F937A
:1053D0005F936F937F938F939F93AF93BF93EF935D
:1053E000FF938091E10082FF0BC08091E20082FF79
:1053F00007C08091E1008B7F8093E1000E94562CD2
:105400008091DA0080FF1FC08091D80080FF1BC010
:105410008091DA008E7F8093DA008091D90080FF3E
:105420000DC080E189BD82E189BD09B400FEFDCFD8
:1054300081E0809301030E94282605C019BC1092C8
:1054400001030E9436268091E10080FF19C08091FF
:10545000E20080FF15C08091E2008E7F8093E20021
:105460008091E20080618093E2008091D8008062A8
:105470008093D80019BC85E0809301030E943B26ED
:105480008091E10084FF30C08091E20084FF2CC055
:1054900080E189BD82E189BD09B400FEFDCF809124
:1054A000D8008F7D8093D8008091E1008F7E80931B
:1054B000E1008091E2008F7E8093E2008091E20023
:1054C00081608093E2008091FD02882311F084E0E6
:1054D00007C08091E30087FD02C081E001C083E046
:1054E000809301030E9443268091E10083FF29C03D
:1054F0008091E20083FF25C08091E100877F809347
:10550000E10082E0809301031092FD028091E100AE
:105510008E7F8093E1008091E2008E7F8093E20095
:105520008091E20080618093E20042E060E080E0F0
:105530000E94DE288091F00088608093F0000E9435
:105540003926FF91EF91BF91AF919F918F917F91FC
:105550006F915F914F913F912F910F900FBE0F90E0
:105560001F9018951F920F920FB60F9211242F9330
:105570003F934F935F936F937F938F939F93AF93DB
:10558000BF93CF93DF93EF93FF93C091E900CF7068
:105590008091EC00D82FD17080FDD0E81092E90006
:1055A0008091F000877F8093F00078940E94F62A23
:1055B0001092E9008091F00088608093F000CD2B7C
:1055C000CF70C093E900FF91EF91DF91CF91BF9130
:1055D000AF919F918F917F916F915F914F913F918B
:1055E0002F910F900FBE0F901F9018951F93CF9380
:1055F000DF93CDB7DEB7AA970FB6F894DEBF0FBE24
:10560000CDBFE2E0F3E08091F100819323E0EA3046
:10561000F207C9F70E9461268091E80083FF2EC13E
:105620008091020390910303492F50E04A305105C5
:1056300008F024C1FA01EC58FF4F0C94AC2C8038D0
:1056400021F0823809F01AC108C08091FE029091C1
:10565000FF02992389F082600FC0809106038F704A
:10566000873008F00BC18093E9008091EB0085FB47
:10567000882780F91092E9009091E800977F909335
:10568000E8008093F1001092F100D1C0282F2D7F07
:1056900009F0F4C0882319F0823061F0EFC08091E6
:1056A0000403813009F0EAC0933009F080E0809370
:1056B000FF022EC08091040381112AC0809106034D
:1056C0008F702FEF280F263008F0D8C08093E900A4
:1056D0002091EB0020FF1CC0933021F48091EB005F
:1056E000806214C09091EB0090619093EB0021E0F8
:1056F00030E0A90102C0440F551F8A95E2F740939C
:10570000EA001092EA008091EB0088608093EB0041
:105710001092E9008091E800877F8093E8000E9462
:105720001329ACC08111AAC0109104031F77809186
:10573000E3008078812B8093E3008091E800877FED
:105740008093E8000E9413298091E80080FFFCCF3D
:105750008091E30080688093E300111102C082E031
:1057600001C083E08093010389C08058823008F033
:1057700085C080910403909105038C3D53E095070B
:1057800079F583E08A838AE289834FB7F894DE0152
:10579000139620E03EE051E2E32FF0E050935700F3
:1057A000E49120FF03C0E295EF703F5FEF708E2F12
:1057B00090E0EA3010F0C79601C0C0968D939D939B
:1057C0002F5F243149F74FBF8091E800877F809396
:1057D000E8006AE270E0CE0101960E941F2816C020
:1057E0006091060370910703AE014F5F5F4F0E9407
:1057F0006327BC01892B09F441C09091E800977F91
:105800009093E80089819A810E947D288091E80028
:105810008B778093E80032C0803881F58091E80072
:10582000877F8093E8008091FD028093F100809152
:10583000E8008E7772CF811121C08091040390918E
:10584000050399270297D4F48091E800877F80931D
:10585000E800809104038093FD020E941329809147
:10586000FD02811106C08091E30087FD02C081E046
:1058700001C084E0809301030E944D268091E800DE
:1058800083FF0AC08091E800877F8093E8008091C1
:10589000EB0080628093EB00AA960FB6F894DEBF0F
:1058A0000FBECDBFDF91CF911F9108950895CF9383
:1058B000809101038823A1F0C091E900CF709091FD
:1058C000EC00892F817090FD80E8C82B1092E900D0
:1058D0008091E80083FD0E94F62ACF70C093E90012
:1058E000CF9108950E946529109201030895E8ED73
:1058F000F0E08081806180838AE18A95F1F700C0C1
:105900008091D90081700895AA1BBB1B51E107C08B
:10591000AA1FBB1FA617B70710F0A61BB70B881F3F
:10592000991F5A95A9F780959095BC01CD010895CE
:1059300097FB072E16F4009407D077FD09D00E943C
:10594000842C07FC05D03EF4909581959F4F0895D7
:10595000709561957F4F0895EE0FFF1F0590F491AC
:10596000E02D0994FB01DC0104C08D9101908019A8
:1059700021F441505040C8F7881B990B0895FB0152
:10598000DC0102C001900D9241505040D8F70895BB
:10599000F999FECF92BD81BDF89A992780B50895F7
:1059A000A6E1B0E044E050E00C94022DA8E1B0E0A4
:1059B00042E050E00C94022D262FF999FECF92BDC3
:1059C00081BDF89A019700B4021639F01FBA20BDC4
:1059D0000FB6F894FA9AF99A0FBE08950396272FF6
:1059E0000E94DD2C0E94DC2C252F0E94DD2C242F10
:1059F0000C94DD2C0196272F0E94DD2C0C94DC2CBE
:105A0000DC01CB01FC01F999FECF06C0F2BDE1BD7E
:105A1000F89A319600B40D9241505040B8F708956D
:045A2000F894FFCF28
:105A2400C800300201C9020000000100000000C9E2
:105A3400020000000501000000C902040600000085
:105A4400000000C902080A000000000000280864E1
:105A54001E140A321E000E000E0EA625C925AA2504
:105A640024262026A92501E200E900EA00B500B6B3
:105A740000B700CD008301CC008A0192019401217A
:105A840002230224022502260227022A02B300B4BA
:105A9400006F007000818283E200E900EA00B50033
:105AA400B600B700CD008301CC008A0192019401B5
:105AB4002102230224022502260227022A02B3001D
:105AC400B4006F007000818283F5F6F7313332360B
:0E5AD4009497C6343500000000005702000110
